:1017D8002D002000204F4C202020200075004F763F
:1017E8006572666C6F77202020202020202000431F
:1017F8003C3132306E206F7220523E313852200018
:10180800523D00F4005600433D00443D0020643D35
:1018180000583D0020783D00593D0020793D005A90
:101828003D00207A3D00436D3D0056703D004A3032
:101838003D004A313D0037326B204C203D004F7649
:1018480065722020202020007548200030336B204E
:101858004C203D00496E6420202020004443523D26
:1018680000473D0020673D00413D0020613D0042AA
:101878003D0020623D00436C6561722E2E2E2E00C5
:10188800436865636B204144207A656F7200633159
:101898003D00496E6420636C65617265642E005A70
:1018A80065726F2E2E2E204F4B0045535220563214
:1018B8002E3000584A572050757469616E2C3230AA
:1018C800313200506F776572206F6666202E2E2E9B
:0F18D800007361766564204F4B00202020202094
:101D8E008219000041005A004100730084150000C2
:101D9E0000008105008108008409474D1400810769
:071DAE000081067F810000A7
:081C5B009280D28474FFFFFEA9
:101C6300C3EE64809480500FE4FCFD0DBD00010CB5
:101C7300ED64144C70F522EF4E700EFCFD0DBD00AB
:101C8300010CED64644C70F522EF4E6015E4FBFA31
:101C93000BBB00010ABA07F8BBD0F5EF1F70EA1EB1
:021CA30080E7D8
:011CA500221C
:061B80007B057D307F04AF
:101B86007858EFF208EBF2A905C28418E2FF75F067
:101B960002120E28AEF0EE24FF9285EFA2E713FFA5
:101BA60075F002120E28AFF0EF24FF9286E9A2E448
:101BB6009283A2E59282A2E6928133121C5BC284D2
:101BC6007858E2B40403088016E9139283E9A2E187
:101BD6009282A2E29281A2E3121C5BC2847859E24D
:091BE600FF3395E0FE121C63229E
:101CEA007F147E00121C637B09121B82121B801256
:101CFA001B807B057D207F04121B867B057D28E4E3
:101D0A00FF121B867B057D0CE4FF121B867B057D7B
:0F1D1A0080E4FF121B867B057D01E4FF021B8620
:091EE4007B027D01E4FF021B8674
:081EF600E4FB7D0CFF021B86DA
:0A1ED000EF2480FDE4FBFF021B86F7
:0A1EDA00EF24C0FDE4FBFF021B86AD
:091EED00AD07E4FB7F01021B8636
:061D29007BFF7A18790827
:101D2F00784DEBF208EAF208E9F2784DE2FB08E2AF
:101D3F00FA08E2F9120E4AFD6014E4FB7F01121B50
:0F1D4F0086784FE22401F218E23400F280DC22A1
:0A18E7007844EEF208EFF208EDF28B
:1018F100E408F2087C007DFE7BFF7A1879E2FE7F26
:1019010005120E027844E2FE08E2FFC3EE64809401
:10191100805013C3E49FFFE49E18F208EFF27BFFAF
:101921007A1779D880067BFF7A1779DA121D2F781A
:1019310044E2FA08E2FB7C007D0AFFAE02120F19B5
:10194100ED2430FF7847E2FE04F274482EF8EFF2FE
:101951007C007D0AAF03AE02120F197844EEF20843
:10196100EFF24E70CA7846E2600F2447F8E2FF12A8
:091971001EED7846E214F280EC50
:01197A00224A
:08132000E2784BF2087404F2BC
:05132800784712108B54
:10132D00E4784FF2785412109700000001E4FFFEAC
:10133D00FDFC7847E2FB08E2F908E2FA08E2CBF897
:10134D00120BF5501C7F2D121EED7847E2FC08E2C2
:10135D00FD08E2FE08E2FF120C62784712108B8046
:10136D00057F20121EEDE4784DF2784BE2FF784DAB
:10137D00E2FEC3EF6480F8EE64809850237847E274
:10138D00FC08E2FD08E2FE08E2FFE4FBFA792078B2
:10139D0041120A4F784712108B784DE204F280CA41
:1013AD00784D7401F2784CE2FF08E2FEC3EF6480E1
:1013BD00F8EE64809850227854E2FC08E2FD08E2D1
:1013CD00FE08E2FFE47B0AFAF9F8120F4F78541287
:1013DD00108B784DE204F280CC7847E2FC08E2FDF8
:1013ED0008E2FE08E2FF120CB1785012108BE4787F
:1013FD004DF2784CE2FF08E2FEC3EF6480F8EE6434
:10140D00809840030215107854E2FB08E2F908E2D7
:10141D00FA08E2CBF8C0007850E2FC08E2FD08E2E1
:10142D00FE08E2FFD000121CA6784EEFF27850E2D3
:10143D00FC08E2FD08E2FE08E2FFC004C005C0069C
:10144D00C007784EE2FF3395E0FEFDFC7854E2FBD9
:10145D0008E2F908E2FA08E2CBF8120F4FA804A946
:10146D0005AA06AB07D007D006D005D004C3EF9B65
:10147D00FFEE9AFEED99FDEC98FC785012108B78EA
:10148D0054E2FC08E2FD08E2FE08E2FFE47B0AFA02
:10149D00F9F8121CA6785412108B784EE2FFD36423
:1014AD008094895008C3EF648094805005784E7401
:1014BD00FAF2784BE2FF08E2C39FFF08E2B5070599
:1014CD007F2E121EED784EE2702308E2701F784BCE
:1014DD00E2FF08E2C39F14FF08E2FEC3EF6480F849
:1014ED00EE64809850077F20121EED800E784EE23C
:1014FD002430FF121EED784F7401F2784DE204F2A4
:0D150D000213FF784BE270057F20121EEDE7
:01151A0022AE
:041E78007F207E4EFB
:101E7C00E4FDFCC3ED9FEC9E50070DBD00010C80F2
:011E8C00F263
:011E8D002232
:101E4300AB07AA06D3EB9400EA9400400E7F107E02
:0C1E530027121E7CEB1B70EC1A80E922A9
:101E5F007401A807088002C333D8FCF59DEF2480D6
:091E6F00F5BC7F017E00021E7C1F
:101E260043BC08E5BC30E4FB53BCE7AFBDEF75F03F
:0D1E360004A4ADBE7C002DFFEC35F0FE22B3
:101DB6007819E2FE08E2FFBE3006BF390375C65A3F
:101DC600BE3006BF390375C6A5E4F5C5F5C7F5C629
:071DD60075C4FF75C3FF2275
:101EA1008FC4EEF5C375C78175C501121DB6AFC2EA
:011EB100220E
:101EB2008DC28FC4EEF5C375C78175C502021DB60A
:0E1EC2008FC4EEF5C375C78175C503021DB64A
:10197B0078217401F2087400F208745BF2087402A7
:10198B00F208E4F2EF604018E2FE08E2FF121EC21A
:10199B00E47820F27820E2FFC3941850617825E2B6
:1019AB002FFF18E23400FE7821E2FB08E2FA08E28E
:1019BB00F97820E2F582758300120E63FD121EB2D8
:1019CB007820E204F280CDE47820F27820E2FFC3A5
:1019DB009418502A7825E22FFF18E23400FE121ECD
:1019EB00A17821E2FB08E2FA08E2F97820E2F5821D
:0E19FB00758300EF120E907820E204F280CD8A
:011A090022BA
:101E8E00E4F5D9F5F9F5E975FA8075EA8075DA4267
:031E9E00D2DE226F
:101E0200438F07758922438E80438E40438E04752B
:101E12008C80758D80759C9CE4F58AF58B438E10C1
:041E2200438850227F
:061B1000783EEDF2A9078A
:101B1600AF8CC3E49FFF74019400AB07FAE9FF7E24
:101B260000AD03AC02120EB2EF2440FFE43EFEEF1E
:101B36007807CEC313CE13D8F9FF783EE27C002F88
:101B46007840F2EC3E18F27808E9F2C28CC28EC2F6
:101B5600B4783FE2FE08E2FFAD03AC02120EC4EF1A
:101B66001392B5E4F58AAC02AD03783FE2FE08E2D3
:091B7600FF120EC48D8B43885050
:011B7F002243
:101BEF00EFB4041543B11053B2EF4392405391BF7A
:101BFF00C28EC28CD2B5D296224391405392BF432C
:101C0F00B21053B1EFEF700C438E80438E40758C42
:101C1F0080758D80EFB4010B538E7F538EBFE4F52B
:101C2F008CF58DEFB4020C438E80438E40758C8003
:101C3F00E4F58DEFB4030D438EC0758C80D28CC24A
:0C1C4F00B5C28E22AF05E4FD121B10226E
:101A9600784012109700000000E4783EF208F278D1
:101AA60040E2FB08E2F908E2FA08E2CBF8121E2649
:101AB600E4FCFDEB2FFFEA3EFEED39FDEC38FC7849
:101AC6004012108B783FE22401F218E23400F2C390
:101AD60008E294F418E26480948140C37840E2FC02
:101AE60008E2FD08E2FE08E22419FFE43EFEE43DBA
:101AF600FDE43CFCE47B32FAF9F8121CA6784012AD
:091B0600108B7842E2FE08E2FFB8
:011B0F0022B3
:0D16C8007836E2FC08E2FD08E2FE08E2FFD1
:0516D500783E12108BAD
:1016DA00E47842F2783EE2FC08E2FD08E2FE08E223
:1016EA00FF784312108BE4FFFEFDFC7843E2FB080F
:1016FA00E2F908E2FA08E2CBF8120BF55015784342
:10170A00E2FC08E2FD08E2FE08E2FF120C627843FE
:10171A0012108B7F007E407D1C7C467843E2FB08DA
:10172A00E2F908E2FA08E2CBF8120BF540097BFF6E
:10173A007A1779DC0217D47F007E407D1C7C4678BC
:10174A0043E2FB08E2F908E2FA08E2CBF8120BF5E9
:10175A005004E47842F2E4FFFE7D7A7C447843E266
:10176A00FB08E2F908E2FA08E2CBF8120BF5500599
:10177A0078427401F2E4FFFE7DC87C427843E2FBC2
:10178A0008E2F908E2FA08E2CBF8120BF5500578FC
:10179A00427402F2E4FFFE7D207C417843E2FB08BA
:1017AA00E2F908E2FA08E2CBF8120BF550057842A2
:1017BA007403F2783EE2FC08E2FD08E2FE08E2FF6A
:0D17CA00081213207BFF7A1779E4121D2FFF
:0117D70022EF
:101D5E00782EE2FC08E2FD08E2FE08E2FF7842740B
:0E1D6E0002F20874FFF2087418F208740BF207
:101D7C0078421213207843E2FB08E2FA08E2F902F7
:021D8C001D2F09
:0E1DDD007BFF782CE2FC08E2FD78437405F2EF
:101DEB007841ECF208EDF2121D2F7841E2FE08E289
:071DFB00FF08E2FD0218E7FA
:07000300781FEFF208EDF297
:10000A0008E4F2087403F218E2FE08E27803C33344
:10001A00CE33CED8F9FFEE3395E0FDFCC004A90536
:10002A00AA06AB077815E2FC08E2FD08E2FE08E240
:10003A00FFD000120FDAAF037823EFF2782E1210F6
:10004A0097000000007832121097000000007836FE
:10005A0012109700000000EBFF3395E0FE7D037C51
:10006A0000120F19ED4C60030209567823E2FF18BB
:10007A00E2FEEF8EF0120E287823F2121A967824F6
:10008A00EEF208EFF27823E2600302011A7F02120D
:10009A001E5F7F0A7E00121E7C121A96AC06AD07FE
:1000AA00E4120C787BCD7ACC79007841120A4FC0E1
:1000BA0004C005C006C007900063E0FC120C7D7BFB
:1000CA006F7A127983783A120A4FE4FBFA798078C8
:1000DA003F12095ED003D002D001D000120A4F7835
:1000EA000912108B7F07121E5F7F0A7E00121E7C88
:1000FA00121E26AC06AD07E4120C787BA97A4D795C
:10010A001C783C120A4F780112108B7F01121E5F75
:10011A007820E260030205D17823E2701108E2FF39
:10012A0008E2780DCFF208EFF2E4FD020607782321
:10013A00E2B4011208E2FF08E2780FCFF208EFF208
:10014A007DC0E40206077823E2B4021108E2FF0840
:10015A00E27811CFF208EFF27DC002061E7823E2A0
:10016A00B4031308E2FF08E27813CFF208EFF2E4CF
:10017A00FD7F02121BEF900061E0FEA3E0FFC3784F
:10018A000EE29FFF18E29EFE782CF208EFF2900032
:10019A005BE0FCA3E0FDC37810E29DFD18E29CCD74
:1001AA00C39F7827F2ED9E18F2A3E0FCA3E0FDC3FB
:1001BA007812E29DFD18E29CCDC39FFFED9EFE786A
:1001CA0028F208EFF2A3E0FCA3E0FDC37814E29D55
:1001DA00FD18E29CFC782CE2FA08E2FBC3ED9BFDD9
:1001EA00EC9AFC900066E0FB3395E0FAED2B782B55
:1001FA00F2EC3A18F2AD07AC06EC120C787809E288
:10020A00FB08E2F908E2FA08E2CBF8120B58783A4E
:10021A0012108B783AE2FC08E2FD08E2FE08E2FFDF
:10022A00A804A905AA06FB120A4F7B9A7A9979D9DA
:10023A00783F120A4FE4FBFA7980783F12095E7818
:10024A003AE2FB08E2F908E2FA08E2CBF8120A4FAE
:10025A00783A12108B783AE2FB08E2F908E2FA08D7
:10026A00E2CBF87FA67E567D8A7C3C120B58783208
:10027A0012108B900065E0FC120C7D7B0A7AD7790C
:10028A00A3783B120A4F783AE2FB08E2F908E2FA4D
:10029A0008E2CBF8120A4FC004C005C006C0077FA7
:1002AA00BE7E9F7DAA7C3F783AE2FB08E2F908E22B
:1002BA00FA08E2CBF8120A4FD003D002D001D000DC
:1002CA0012095EC004C005C006C007900064E0FCC5
:1002DA00120C7D7B6F7A127983783A120A4FA8043E
:1002EA00A905AA06AB07D007D006D005D004120983
:1002FA005AC004C005C006C0077828E2FC08E2FD1F
:10030A00EC120C78D003D002D001D000120A4F129E
:10031A000CB17824EEF208EFF208E2FC08E2FDECF8
:10032A00120C78C004A905AA06AB077809E2FC08F2
:10033A00E2FD08E2FE08E2FFD00012095AC004C03A
:10034A0005C006C0077824E2FE08E2FFC37827E268
:10035A009FFD18E29EFC120C78D003D002D001D087
:10036A0000120B58E4FBFA79D07842120A4F782E21
:10037A0012108BC37814E2944818E2648094A64061
:10038A0003020419782AE2FC08E2FDEC120C7878E0
:10039A0009E2FB08E2F908E2FA08E2CBF8120B5884
:1003AA00783A12108B783AE2FC08E2FD08E2FE087D
:1003BA00E2FFA804A905AA06FB120A4F7B9A7A99BA
:1003CA0079D9783F120A4FE4FBFA7980783F12090B
:1003DA005E783AE2FB08E2F908E2FA08E2CBF812A0
:1003EA000A4F783A12108B783AE2FB08E2F908E2EF
:1003FA00FA08E2CBF87FA67E567D8A7C3C120B581F
:10040A00E4FBFA79C07841120A4F783612108B78D9
:10041A001FE27079D37810E2944818E2648094A6B7
:10042A00500D7812E2944818E2648094A6401CE4C5
:10043A00FF121ED07BFF7A1779E6121D2FE4FF12F6
:10044A001EDA7BFF7A1779F7021D2FE4FF121ED0FE
:10045A00121D29121D5E7801E2FC08E2FD08E2FE87
:10046A0008E2FF78427402F20874FFF2087418F284
:10047A0008740DF2121D7CE4FF121EDA7BFF7A1853
:10048A00790F121D2F78321216CA1216C8781FE277
:10049A0064017047FF121ED07BFF7A187912900010
:1004AA0061E0FCA3E0FD78437404F2121DEB7A18B4
:1004BA007915121DDDE4FF121EDA7BFF7A1879190D
:1004CA0090005BE0FCA3E0FD78437404F2121DEB9C
:1004DA007BFF7A18791C7826121DE1781FE26402E4
:1004EA00704BFF121ED07BFF7A18792090005DE0D6
:1004FA00FCA3E0FD78437404F2121DEB7BFF7A182B
:10050A0079237828121DE1E4FF121EDA7BFF7A189C
:10051A00792790005FE0FCA3E0FD78437404F212AF
:10052A001DEB7BFF7A18792A782A121DE1781FE2DF
:10053A0064047027FF121ED07BFF7A18790F121DF0
:10054A002F1216C8E4FF121EDA7BFF7A18792E9052
:10055A000066E0FD3395E0FC121DE6781FE2C364F5
:10056A00809485400BE4FF121ED0121D29121D5ED5
:10057A00781FE2B40517E4FF121EDA7BFF7A1879B6
:10058A0032900063E0FD3395E0FC121DE6781FE22D
:10059A00B40617E4FF121EDA7BFF7A187936900048
:1005AA0064E0FD3395E0FC121DE6781FE2B40717FC
:1005BA00E4FF121EDA7BFF7A18793A900065E0FDB3
:1005CA003395E0FC121DE67820E26401600302091B
:1005DA00567823E2701208E2FF08E2780DCFF2089B
:1005EA00EFF2E4FD7F0480467823E2B4011208E2C8
:1005FA00FF08E2780FCFF208EFF27D40E4FF802E89
:10060A007823E2B4021208E2FF08E27811CFF20876
:10061A00EFF27D407F0180167823E2B4031308E2EB
:10062A00FF08E27813CFF208EFF2E4FD7F03021B22
:10063A00EF90006BE0FEA3E0FFC3780EE29FFF1885
:10064A00E29EFE782CF208EFF2900067E0FCA3E04D
:10065A00FDC37812E29DFD18E29CCDC39F7829F272
:10066A00ED9E18F2A3E0FCA3E0FDC37814E29DFD21
:10067A0018E29CCDC39F782BF2ED9E18F290007180
:10068A00E0FEA3E0FF7810E22FFF18E23EFE782694
:10069A00F208EFF2C3EE648094805005E418F20881
:1006AA00F27827E225E0FF18E233FE7C007D031290
:1006BA000F197826EEF208EFF2FDAC06EC120C7870
:1006CA00E4FBFA79FA7844120B58C004C005C00654
:1006DA00C00790006DE0FCA3E0FDEC120C78D0039B
:1006EA00D002D001D000120A4FC004C005C006C013
:1006FA00077828E2FC08E2FDEC120C78D003D0025D
:10070A00D001D00012095A120CB17828EEF208EF83
:10071A00F27826E2FC08E2FDEC120C78E4FBFA79A6
:10072A00FA7844120B58C004C005C006C0079000EE
:10073A006FE0FCA3E0FDEC120C78D003D002D001EC
:10074A00D000120A4FC004C005C006C007782AE2CA
:10075A00FC08E2FDEC120C78D003D002D001D000E4
:10076A0012095A120CB1782AEEF208EFF27809E26D
:10077A00FB08E2F908E2FA08E2CBF8E4FFFE7DB1F1
:10078A007C43120B58783A12108B781FE2600302EE
:10079A0008B9FF121ED07BFF7A18793E121D2FD39B
:1007AA007812E2944818E2648094A6400B7BFF7AA0
:1007BA00187946121D2F80637826E2FC08E2FDECC8
:1007CA00120C787B177AB779517839120A4FE4FB01
:1007DA00FA7980783F12095EC004C005C006C007D6
:1007EA007828E2FC08E2FDEC120C78783AE2FB0881
:1007FA00E2F908E2FA08E2CBF8120A4FD003D00273
:10080A00D001D000120A4F78427402F20874FFF243
:10081A00087418F2087450F2121D7CE4FF121EDAF2
:10082A007BFF7A187954121D2FD37814E294481852
:10083A00E2648094A6400B7BFF7A187946121D2F3A
:10084A00806D7826E2FC08E2FDEC120C787BF77AE0
:10085A00CC79127839120A4FE4FBFA7980783F1280
:10086A00095EC004C005C006C007782AE2FC08E297
:10087A00FDEC120C78783AE2FB08E2F908E2FA0891
:10088A00E2CBF8120A4FD003D002D001D000120AEC
:10089A004F7B667A6679C27841120A4FE47842F24F
:1008AA000874FFF2087418F2087450F2121D7C786A
:1008BA001FE264017044FF121ED07BFF7A18795C34
:1008CA00121D2F7BFF7A1879647826E2FC08E2FD74
:1008DA0078437404F2121DEBE4FF121EDA7BFF7AEE
:1008EA0018796990006BE0FCA3E0FD78437404F288
:1008FA00121DEB7A18796C121DDD781FE264027002
:10090A004BFF121ED07BFF7A187970900067E0FCCB
:10091A00A3E0FD78437404F2121DEB7BFF7A187989
:10092A00737828121DE1E4FF121EDA7BFF7A187928
:10093A0077900069E0FCA3E0FD78437404F2121D8D
:0C094A00EB7BFF7A18797A782A121DE105
:01095600227E
:10151B007806E2C3648094FF5003E204F27806E29B
:10152B00B40113121EE47BFF7A18797E121D2F7FF4
:10153B00647E00121E437806E2643260030216C713
:10154B007807E27003021642780FE2FE08E2FFD33F
:10155B0094C4EE648094895003021642EF94B8EE63
:09156B006480948B4003021642D7
:10157400900067E0FEA3E0FFC37812E29FFF18E249
:101584009E90006DF0A3EFF0900069E0FEA3E0FFF1
:10159400C37814E29FFF18E29E90006FF0A3EFF06F
:1015A400121EE47BFF7A187988121D2FE4FD7F0454
:1015B400121BEFC296E4900071F0A3F0781FF2B210
:1015C400967F647E00121E7CB2967F847E03121E78
:1015D4007C781FE2C394BE400F121E26900072E076
:1015E4002FF0900071E03EF0781FE204F2E2C39421
:1015F400C840CCD296900071E0FEA3E0FFC3741300
:101604009FF074019E900071F0E4FF121EDA7BFFDC
:101614007A187996900071E0FCA3E0FD7843740495
:10162400F2121DEB7F0112197BE4FF121EDA7BFF1D
:0E1634007A18799A121D2F7FC87E00021E437D
:101642007807E2780D6022E2FF08E290006BCFF0AB
:10165200A3EFF07811E2FF08E2900067CFF0A3EF6A
:10166200F008E2FF08E2A3802EE2FF08E2900061A8
:10167200CFF0A3EFF07811E2FF08E290005DCFF027
:10168200A3EFF008E2FF08E2A3CFF0A3EFF0780F98
:10169200E2FF08E290005BCFF0A3EFF07F011219A6
:1016A2007B121EE47BFF7A1879A7121D2F7FC87E5A
:1016B20000121E437807E204FF75F002120E28AFF3
:0616C200F07807EFF222B0
:1010B000E4781BF208F208F208F2C2A075920975F2
:1010C000918675B23075B120759602759502121E23
:1010D00002121E8E7F057E00121E43121CEA121E93
:1010E000F67BFF7A1879B2121D2FE4FF121EDA7B0D
:1010F000FF7A1879BB121D2F7FC87E00121E431283
:101100001EE478197430F2087439F2E4FF12197B86
:101110007F01121E5F7815E2FC08E2FD08E2FE087E
:10112000E22401FFE43EFEE43DFDE43CFC781512C0
:10113000108BE47B64FAF9F8C0007815E2FC08E251
:10114000FD08E2FE08E2FFD000120FDAAC00AD01AC
:10115000AE02AF03E4FBFAF9F8C312107A70057817
:1011600005E204F27805E2B4C802D2A030A1601210
:101170001E7820A1FD121EE47BFF7A1879CB121D88
:101180002FE4781BF2781BE2B4F002D2A0E4FF1245
:101190001EDA781BE275F01484FF7E007D031218BE
:1011A000E730A106E4781BF2800A121E78781BE271
:1011B00004F280D1121E7820A1FD7807E204FF75A9
:1011C000F002120E28AFF07807EFF2E47805F2E4AF
:1011D000781CF2781EE218F2E5B0F454C808F21850
:1011E000E2FF603808E27021781BE2FED3940240EF
:1011F0000308EFF2EED394284006781DE20418F2BB
:10120000E4781BF27805F28013781BE2C394FF5058
:10121000047F0180027F00781BE22FF2781CE2B489
:101220008010121EE490005AE004F0D394044002AF
:10123000E4F0781CE2B481187F0112197B121EE4DD
:101240007BFF7A1879D9121D2F7F647E00121E430E
:0612500090005AE070302E
:101256007800E2FF7807E2FD12000312151B781CE6
:10126600E2FFB44004E47806F2EFB408137800E233
:1012760004F2E2FF75F003120E28AFF07800EFF2E9
:1012860090005AE0B4011EE4FD7F05120003781CAD
:10129600E2FFB44006900063E004F0EFB408069065
:1012A6000063E014F090005AE0B4021EE4FD7F06ED
:1012B600120003781CE2FFB44006900064E004F0DC
:1012C600EFB40806900064E014F090005AE0B4030E
:1012D6001EE4FD7F07120003781CE2FFB44006906F
:1012E6000065E004F0EFB40806900065E014F090A5
:1012F600005AE0B4041EE4FD7F04120003781CE2E9
:10130600FFB44006900066E004F0EFB408069000D3
:0A13160066E014F0121E78021115B3
:10095700020D1DE86480F8E933E83360110460F0A4
:10096700ED33EC337009E8FCE9FDEAFEEBFF220406
:1009770060DED3EB9FEA9EE99DE8C2E78CF0C2F701
:1009870095F0400CE8CCF8E9CDF9EACEFAEBCFFBCD
:10099700120CE885D0F05804700320D5B3E8047032
:1009A700075002B2D5020D2792D5EC0460F7E4CCCC
:1009B700C0E0C398F8603B94186008400DD0E0FB96
:1009C700020CFFE4FBFAC9FC8028E830E406E4C91E
:1009D700FBE4CAFCE830E305E4C9CACBFCE85407EA
:1009E7006010F8C3E913F9EA13FAEB13FBEC13FCF5
:1009F700D8F130F52FC3E49CFCEF9BFFEE9AFEED98
:100A070099FDD0E0FBEF4E4D4C701222DB03020D37
:100A170024EC2CFCEF33FFEE33FEED33FDED30E736
:100A2700EB020CFFEF2BFFEE3AFEED39FDD0E0FBBA
:100A370050130BBB0003020D27ED13FDEE13FEEF62
:080A470013FFEC13FC020CFF8D
:100A4F00EC4D6011E8497017ED33EC3304600DE4A1
:100A5F00FCFFFEFD22E933E8330470F8020D1D128E
:100A6F000CE858046009E4CC248150062850090290
:100A7F000D27284003020D24C0E0EB4A7044B980D3
:100A8F0006D0E0FB020D13EF4E701CBD8008EBFF8C
:100A9F00EAFEE9FD80EBE98DF0A4FEE5F0020B38EC
:100AAF00E9CDF9EAFEEBFFEF89F0A4FCE5F0CE8982
:100ABF00F0A42EFFE435F0CD89F0A42DFEE435F03F
:100ACF008067EF4E7005BD80D780C3EF8BF0A4AC6D
:100ADF00F0EE8BF0A42CFCE435F0F8EF8AF0A42CA8
:100AEF00E5F038FCE433CB8DF0A42CFCE5F03BF8BB
:100AFF00EE8AF0A42CFCE5F038F8E433CF89F0A4AB
:100B0F002CFCE5F038CF3400CE89F0A42FFFE5F0B0
:100B1F003EFEE433C98DF0A42EFEE5F039CD8AF008
:100B2F00A42FFFE5F03EFEE43DFD33D0E0FB500780
:100B3F000BBB000F020D27EC2CFCEF33FFEE33FE47
:060B4F00ED33FD020CFF76
:100B5500020D27EC5D046005E859047003020D1DC4
:100B6500120CE8580460F6EC4860F2EC7004FDFEE7
:100B7500FF22C860DB2481C85009C3986002500673
:100B8500020D249850CAF582E9294B4A7005AB82BB
:100B9500020D1375F0007C1A7880C3EF9BEE9AED79
:100BA50099400DC3EF9BFFEE9AFEED99FDE842F0EB
:100BB500DC23ACF0D0E0FFD0E0FED0E0FDAB82203E
:100BC500E7101BEB60BAEC2CFCEF33FFEE33FEEDC8
:100BD50033FD020CFFE803F830E705C0F075F000BF
:100BE500EF2FFFEE33FEED33FD40B830E7C280AAAC
:100BF50074F8CC6480CCC86480C8F582046043C3B3
:100C0500EB9FF5F0EA9E42F0E99D42F0E89C45F045
:100C150060305018E5825FFFE582F42B5582FB506A
:100C2500210ABA001D09B90019088016E5825BFB87
:100C3500E582F42F5582FF50090EBE00050DBD005B
:100C4500010CC3EB9FF5F0EA9E42F0E99D42F0E806
:0D0C55009C45F06007CC4820E701B3EC227D
:100C6200ED33EC33600A047003BD8004ECB2E7FCA0
:010C7200225F
:100C730075F020800E75F010800575F0087D007EFC
:100C8300007F003392D530D50312106CEC33401043
:100C9300EF33FFEE33FEED33FDEC33FCD5F0ED2205
:0E0CA300E5F0247EA2D513CC92E7CDCEFF2241
:100CB100EDD2E7CD33EC3392D524814006E4FFFE3B
:100CC100FDFC22FCE4CFCECDCC24E0501174FF809A
:100CD100EDC3CC13CCCD13CDCE13CECF13CF047037
:070CE100F030D5DE02106CBB
:100CE800E9D2E7C933E833F892D5EDD2E7CD33EC52
:070CF80033FC5002B2D522CB
:100CFF00EC30E7100FBF000C0EBE00080DBD000456
:100D0F000BEB6014A2D5EB13FCED92E7FD2274FF01
:100D1F00FCFDFEFF22E480F8A2D574FF13FC7D805A
:030D2F00E480EF6E
:03000000021A0AD7
:0C1A0A00787FE4F6D8FD758107021A51C0
:100D3200E709F608DFFA8046E709F208DFFA803EA3
:100D420088828C83E709F0A3DFFA8032E309F60890
:100D5200DFFA8078E309F208DFFA807088828C83F8
:100D6200E309F0A3DFFA806489828A83E0A3F608AC
:100D7200DFFA805889828A83E0A3F208DFFA804C86
:100D820080D280FA80C680D4806980F2803380105D
:100D920080A680EA809A80A880DA80E280CA8033C6
:100DA20089828A83ECFAE493A3C8C582C8CCC5833E
:100DB200CCF0A3C8C582C8CCC583CCDFE9DEE7800E
:100DC2000D89828A83E493A3F608DFF9ECFAA9F08D
:100DD200EDFB2289828A83ECFAE0A3C8C582C8CCE3
:100DE200C583CCF0A3C8C582C8CCC583CCDFEADEFC
:100DF200E880DB89828A83E493A3F208DFF980CC5E
:100E020088F0EF60010E4E60C388F0ED2402B40456
:100E12000050B9F582EB2402B4040050AF232345FD
:060E22008223900D827393
:100E2800C2D530F707B2D563F0FF05F030E70CB252
:100E3800D5F4048463F0FF05F080018430D502F412
:020E4800042282
:100E4A00BB010689828A83E0225002E722BBFE02A6
:090E5A00E32289828A83E49322D9
:100E6300BB010CE58229F582E5833AF583E0225044
:100E730006E92582F8E622BBFE06E92582F8E2228E
:0D0E8300E58229F582E5833AF583E49322A8
:100E9000F8BB010DE58229F582E5833AF583E8F098
:100EA000225006E92582C8F622BBFE05E92582C844
:020EB000F2222C
:100EB200EF8DF0A4A8F0CF8CF0A428CE8DF0A42E54
:020EC200FE220E
:100EC400BC000BBE0029EF8DF084FFADF022E4CC12
:100ED400F875F008EF2FFFEE33FEEC33FCEE9DECDB
:100EE400984005FCEE9DFE0FD5F0E9E4CEFD22ED21
:100EF400F8F5F0EE8420D21CFEADF075F008EF2F6B
:100F0400FFED33FD4007985006D5F0F222C398FD5B
:050F14000FD5F0EA22F8
:100F1900C2D5EC30E709B2D5E4C39DFDE49CFCEEF3
:100F290030E715B2D5E4C39FFFE49EFE120EC4C399
:100F3900E49DFDE49CFC8003120EC430D507C3E494
:060F49009FFFE49EFE2262
:100F4F00E88FF0A4CC8BF0A42CFCE98EF0A42CFC41
:100F5F008AF0EDA42CFCEA8EF0A4CDA8F08BF0A4BF
:100F6F002DCC3825F0FDE98FF0A42CCD35F0FCEB1E
:100F7F008EF0A4FEA9F0EB8FF0A4CFC5F02ECD39E3
:0F0F8F00FEE43CFCEAA42DCE35F0FDE43CFC2250
:100F9E0075F008758200EF2FFFEE33FECD33CDCC0A
:100FAE0033CCC58233C5829BED9AEC99E58298408D
:100FBE000CF582EE9BFEED9AFDEC99FC0FD5F0D66A
:100FCE00E4CEFBE4CDFAE4CCF9A88222B800C1B994
:100FDE000059BA002DEC8BF084CFCECDFCE5F0CBD2
:100FEE00F97818EF2FFFEE33FEED33FDEC33FCEB0B
:100FFE0033FB10D703994004EB99FB0FD8E5E4F9C6
:10100E00FA227818EF2FFFEE33FEED33FDEC33FCB2
:10101E00C933C910D7059BE99A4007EC9BFCE99AA6
:10102E00F90FD8E0E4C9FAE4CCFB2275F010EF2FEB
:10103E00FFEE33FEED33FDCC33CCC833C810D707EB
:10104E009BEC9AE899400AED9BFDEC9AFCE899F826
:0E105E000FD5F0DAE4CDFBE4CCFAE4C8F922B9
:101CA600C2D5E830E70FB2D5E4C39BFBE49AFAE469
:101CB60099F9E498F8EC30E717B2D5121CDC120F4C
:101CC600DAE4C39BFBE49AFAE499F9E498F8800312
:101CD600120FDA30D50DE4C39FFFE49EFEE49DFDAE
:041CE600E49CFC225C
:0E106C00C3E49FFFE49EFEE49DFDE49CFC2295
:10107A00EB9FF5F0EA9E42F0E99D42F0E89C45F0CC
:01108A002243
:0C108B00ECF208EDF208EEF208EFF222A1
:10109700D083D082E493F208740193F20874029328
:0910A700F208740393F27404735F
:101A16000210B0E493A3F8E493A34003F68001F226
:101A260008DFF48029E493A3F85407240CC8C333D1
:101A3600C4540F4420C8834004F456800146F6DFA0
:101A4600E4800B0102040810204080901D8EE47E85
:101A5600019360BCA3FF543F30E509541FFEE49395
:101A6600A360010ECF54C025E060A840B8E493A35C
:101A7600FAE493A3F8E493A3C8C582C8CAC583CA87
:101A8600F0A3C8C582C8CAC583CADFE9DEE780BE3F
:011DB500002D
:00000001FF
