:1043FA003230303000203230300032302E3000324D
:10440A002E30300020323000322E30003130304829
:10441A007A0020314B487A00372E384B48004F70CB
:10442A00656E207A65726F2E2E2E2E2E2E00536800
:10443A006F7274207A65726F2E2E2E4F4B2E002DBE
:10444A0031002031002D0020005A3D00523D003D30
:10445A0000202020200043700020433E006D4600CB
:10446A00202D2D2D4F4C2D2D2D004373004C700007
:10447A00204C3E002048004C730052700020523EEF
:10448A0000204D005273002020204F4C2020252070
:10449A00002D20204F4C2020252000252000513DB2
:1044AA0000202000443D0058700020583E004D0076
:1044BA00587300204155544F002041552D43002088
:1044CA0041552D4C002041552D52002050200020EE
:1044DA00532000204F766572666C6F772C68696787
:1044EA00680020202020202020202000204F7665F0
:1044FA0072666C6F772C6C6F7720004C43522033B6
:10450A002E3000584A572050757469616E2C32302B
:10451A00313200204C435220536574204F70746925
:10452A006F6E730020457869743A58202056657278
:10453A003A352E350075703A002064773A002078B3
:10454A00773D00204B333D002047613D00466571B1
:10455A0020636F7272656374005A30203A303030CB
:10456A00005A31203A303030005A32203A30303056
:10457A00005231203A203430005231583A20343037
:10458A0000616B203A203235005232203A20316BDA
:10459A00005232583A20316B005233203A31306B94
:1045AA00005233583A31306B005234203A2E314D92
:1045BA00005234623A2E314D005234583A2E314D5F
:1045CA00004731203A20336B004731583A20336B89
:1045DA00004732203A20396B004732623A20396B61
:1045EA00004732583A20396B007068583A20316BCC
:1045FA000020583A2B20523A2D0000000E11110AC1
:10460A001B00001111131D1010100E111F11110E95
:10461A0000001C101B121B010700040E1F041F0EB2
:10462A000400FF43FAFF43FFFF4404FF4409FF4429
:10463A000EFF440EFF4412FF4416FF441CFF44229F
:10464A00FF4428FF4438706E016D006B4D47202BE4
:10465A002020202020FFFFFFFFFFFFFEFEFDFCFCC5
:10466A00FBFAF9F8F7F6F5F3F2F0EFEDECEAE8E623
:10467A00E5E3E1DEDCDAD8D6D3D1CECCC9C7C4C2F1
:10468A00BFBCB9B7B4B1AEABA8A5A29F9C9996938B
:10469A00908C898683807D7A7774706D6A6764618D
:1046AA005E5B5855524F4C494744413E3C3937347A
:1046BA00322F2D2A282624221F1D1B1A18161413DE
:1046CA0011100E0D0B0A090807060504040302025D
:1046DA0001010101010101010101010202030404B6
:1046EA0005060708090A0B0D0E1011131416181ADD
:1046FA001B1D1F222426282A2D2F323437393C3EEF
:10470A00414447494C4F5255585B5E6164676A6D34
:10471A007074777A7D808386898C909396999C9F12
:10472A00A2A5A8ABAEB1B4B7B9BCBFC2C4C7C9CC05
:10473A00CED1D3D6D8DADCDEE1E3E5E6E8EAECED81
:10474A00EFF0F2F3F5F6F7F8F9FAFBFCFCFDFEFEE2
:10475A00FFFFFFFFFF000000000000000000000054
:10476A00000000000000000000000000000000003F
:10477A00000000000000000000000000000000002F
:10478A00000000000000000000000000000000001F
:10479A00000000000000000000000000000000000F
:1047AA0000000000000000000000000000000000FF
:1047BA0000000000000000000000000000000000EF
:1047CA0000000000000000000000000000000000DF
:1047DA0000000000000101010101010101010101C4
:1047EA0001010101010101010101010101010101AF
:1047FA00010101010101010101010101010101019F
:10480A00010101010101010101010101010101018E
:10481A00010101010101010101010101010101017E
:10482A00010101010101010101010101010101016E
:10483A00010101010101010101010101010101015E
:10484A00010101010101010101010101010101014E
:10485A0001010101013F80000040400000411000B9
:10486A000041D8000042200000447A0000461C4063
:10487A000047C350000000FFF1001E00180000139B
:10488A002413E21414157C17E8FF4563FF456BFFF8
:10489A004573FF457BFF4583FF458BFF4593FF45E6
:1048AA009BFF45A3FF45ABFF45B3FF45BBFF45C390
:1048BA00FF45CBFF45D3FF45DBFF45E3FF45EBFF54
:0248CA0045F3B4
:104AB600811B00811D00811F00812200880F0000DC
:104AC6000000000008008203000182080000820A3C
:104AD6000000410089014101230041008A01410192
:104AE600240082200000820D0100821803D1822357
:104AF60000008305FE002044007D44742666810C78
:104B060000410125004100AD01811C0158009500BE
:104B1600000000000000000001000100000000008D
:104B26000000000000000044009000010001410068
:104B3600AE0041008F0041009400811A0641007CBE
:104B460001810100810200811E01811700810000A0
:085044009280D28474FFFFFE8C
:10504C00C3EE64809480500FE4FCFD0DBD00010C98
:10505C00ED641E4C70F522EF4E700EFCFD0DBD0084
:10506C00010CED64964C70F522EF4E6015E4FBFAE2
:10507C000BBB00010ABA0BF8BBB8F5EF1F70EA1EA8
:02508C0080E7BB
:01508E0022FF
:064F29007B057D307F04D2
:104F2F00787AEFF208EBF2A905C28418E2FF75F068
:104F3F000212357AAEF0EE24FF9286EFA2E713FF4E
:104F4F0075F00212357AAFF0EF24FF9285E9A2E4F3
:104F5F009283A2E59282A2E6928133125044C284D8
:104F6F00787AE2B40403088016E9139283E9A2E188
:104F7F009282A2E29281A2E3125044C284787BE231
:094F8F00FF3395E0FE12504C22A4
:105116007F147E0012504C7B09124F2B124F29121E
:105126004F297B057D207F04124F2F7B057D28E4C8
:10513600FF124F2F7B057D0CE4FF124F2F7B057D61
:0F51460080E4FF124F2F7B057D01E4FF024F2F06
:0952F1007B027D01E4FF024F2F56
:08530300E4FB7D0CFF024F2FBB
:08526B0090013E1237207F0282
:0A527300EF2480FDE4FBFF024F2F43
:0A52E700EF24C0FDE4FBFF024F2F8F
:0452CD00E02430FFAA
:0952D100AD07E4FB7F01024F2F41
:104F980090017EE0904635FF3395E0FE75F003EF13
:104FA800123782EE75F003A42583F583E493FB742E
:074FB8000193FA740293F962
:104FBF007877EBF208EAF208E9F27877E2FB08E299
:104FCF00FA08E2F912359CFD6014E4FB7F01124FE1
:0F4FDF002F7879E22401F218E23400F280DC220C
:0E38B100900146E0FCA3E0FDA3E0FEA3E0FFD3
:0538BF00784612372CD1
:1038C400E47856F2087404F20814F2087C007DFED1
:1038D4007BFF7A4679587E007F021235547867124E
:1038E400376900000001786F1237693F8000007863
:1038F400731237693F800000784EE2B4020978738E
:1039040012376940000000E4FFFEFDFC7846E2FB4C
:1039140008E2F908E2FA08E2CBF81232FA501A780F
:1039240059742DF27846E2FC08E2FD08E2FE08E252
:10393400FF123367784612372CE4FFFEFDFC784A09
:10394400E2FB08E2F908E2FA08E2CBF81232FA5094
:103954001A785A742DF2784AE2FC08E2FD08E2FE75
:1039640008E2FF123367784A12372C784AE2FC08DF
:10397400E2FD08E2FE08E2FF7846E2FB08E2F9080D
:10398400E2FA08E2CBF81232FA6006400478468084
:1039940002784AE2FC08E2FD08E2FE08E2FF786BE6
:1039A40012372C78547401F27867E2FC08E2FD08BF
:1039B400E2FE08E2FFE47B0AFAF9F812368078673F
:1039C40012372C7854E204F2E2B404DCE47854F2C2
:1039D400E4FFFE7D7A7C447873E2FB08E2F908E2B6
:1039E400FA08E2CBF8123154C004C005C006C0077F
:1039F400786FE2FC08E2FD08E2FE08E2FF786BE281
:103A0400FB08E2F908E2FA08E2CBF8123154A80400
:103A1400A905AA06AB07D007D006D005D0041232F8
:103A2400FA4021786FE2FC08E2FD08E2FE08E2FFBA
:103A3400E4FBFA797A784412325D786F12372C7885
:103A440056E204F27854E204F2E264037082E47809
:103A540054F2784FE2FF7854E2FEC3EF6480F8EE4C
:103A6400648098505B786FE2FC08E2FD08E2FE088F
:103A7400E2FF786BE2FB08E2F908E2FA08E2CBF82D
:103A84001231547873E2FB08E2F908E2FA08E2CB57
:103A9400F81232FA60234021786FE2FC08E2FD0854
:103AA400E2FE08E2FFE4FBFA797A784412315478B2
:103AB4006F12372C7856E214F27854E204F28092B2
:103AC400784FE2B401097856E2B4FF0308803778EE
:103AD4004FE2FFB402177856E2B4FE117819E2649B
:103AE40085700418E2641E785760208019EFB404CE
:103AF4001D7856E2B4FC177819E26485700418E264
:103B0400641E785760057402F280037403F27854DB
:103B14007401F27857E2FF7854E2FEC3EF6480F850
:103B2400EE6480984003023BB37867E2FC08E2FD50
:103B340008E2FE08E2FFEC1233787873E2FB08E255
:103B4400F908E2FA08E2CBF8123154C004C005C007
:103B540006C007786FE2FC08E2FD08E2FE08E2FF17
:103B6400786BE2FB08E2F908E2FA08E2CBF81231DA
:103B740054A804A905AA06AB07D007D006D005D0DF
:103B8400041232FA5029786FE2FC08E2FD08E2FEE2
:103B940008E2FFE4FBFA79207841123154786F127D
:103BA400372C7858E214F27854E204F2023B177886
:103BB40050E2FC08E2FD08E2FE08E2FF786FE2FB57
:103BC40008E2F908E2FA08E2CBF81231541233B6EB
:103BD400786312372CE47854F27854E2FFC364809B
:103BE40094824003023E96EF786F600FE2FC08E295
:103BF400FD08E2FE08E2FF784A800DE2FC08E2FDDF
:103C040008E2FE08E2FF7846E2FB08E2F908E2FA7D
:103C140008E2CBF8123154E4FBFAF9783F1230632E
:103C24001233B6785B12372C7863E2FC08E2FD08A5
:103C3400E2FE08E2FFEC4D4E4F7003023CDC785B81
:103C4400E2FB08E2F908E2FA08E2CBF8C000C0019E
:103C5400C002C003E47B02FAF9F8C0007863E2FC16
:103C640008E2FD08E2FE08E2FFD00012508FD00304
:103C7400D002D001D000EB2FFFEA3EFEE93DFDE883
:103C84003CFC785B12372C785BE2FC08E2FD08E22E
:103C9400FE08E2FFC004C005C006C0077863E2FB6B
:103CA40008E2F908E2FA08E2CBF8C000785BE2FC2B
:103CB40008E2FD08E2FE08E2FFD00012508FD007B0
:103CC400D006D005D004C3EF9BFFEE9AFEED99FD1C
:103CD400EC98FC785B12372CE47F14FEFDFC7867CB
:103CE400E2FB08E2F908E2FA08E2CBF8123680783F
:103CF4005BE2FB08E2F908E2FA08E2CBF8C3123609
:103D0400DD4031785BE2FC08E2FD08E2FE08E2FFF8
:103D1400EC123378E4FBFAF9783F123063E4FBFAEF
:103D24007920784112325D1233B6785B12372C78E1
:103D340058E204F27867E2FC08E2FD08E2FE08E2D9
:103D4400FF785F12372CE47F0AFEFDFC7867E2FB04
:103D540008E2F908E2FA08E2CBF8123680785BE26E
:103D6400FB08E2F908E2FA08E2CBF8C31236DD40B8
:103D740069785BE2FC08E2FD08E2FE08E2FFC004A9
:103D8400C005C006C007E47F0AFEFDFC7867E2FBBD
:103D940008E2F908E2FA08E2CBF8123680A804A98E
:103DA40005AA06AB07D007D006D005D004C3EF9B05
:103DB400FFEE9AFEED99FDEC98FC785B12372C78B7
:103DC40054E22459F8E27BFFB42D067A4479498001
:103DD400047A44794C124FBF80167854E22459F87F
:103DE400E2FF1252D1784EE2B402057F301252D172
:103DF400E47855F2785FE2FB08E2F908E2FA08E2B7
:103E0400CBF8C000785BE2FC08E2FD08E2FE08E2C1
:103E1400FFD00012508FEF2430FF1252D17858E2B5
:103E2400FF7855E2B507057F2E1252D1785BE2FC8C
:103E340008E2FD08E2FE08E2FF08E2FB08E2F908F6
:103E4400E2FA08E2CBF812508FAC00AD01AE02AF3B
:103E540003785B12372C785FE2FC08E2FD08E2FE8F
:103E640008E2FFE47B0AFAF9F812508F785F123700
:103E74002C7855E204F2E2C3648094845003023D3A
:103E8400F8784EE2600C640260087854E204F202AE
:103E94003BDD784FE26401601A7856E2FF3395E027
:103EA400FE74542FF58274463EF583E49370047FC8
:103EB4002080157856E2FF3395E0FE74542FF58286
:103EC40074463EF583E493FF1252D1784FE2B40175
:103ED4001C7856E2FF3395E0FE74542FF582744645
:103EE4003EF583E493700678157420F222781574F5
:023EF40008F2D2
:013EF60022A9
:0B50D300E0FCA3E0FDA3E0FEA3E0FF73
:1050DE00C004C005C006C007784A12376900000038
:1050EE0000E4784EF27841E2784FF27842E2FC0822
:1050FE00E2FD08E2FE08E2FF785012372CD007D00E
:08510E0006D005D0040238BFF1
:0A4D2700783BEEF208EFF208EDF21F
:104D3100E408F2087C007DFE7BFF7A46795AFE7F0B
:104D410005123554783BE2FE08E2FFC3EE6480941D
:104D5100805013C3E49FFFE49E18F208EFF27BFF3B
:104D61007A44794F80067BFF7A447951124FBF789C
:104D71003BE2FA08E2FB7C007D0AFFAE0212364AF2
:104D8100ED2430FF783EE2FE04F2743F2EF8EFF29C
:104D91007C007D0AAF03AE0212364A783BEEF20880
:104DA100EFF24E70CA783DE2600F243EF8E2FF1246
:094DB10052D1783DE214F280ECCD
:014DBA0022D6
:040003007F107E27C5
:10000700E4FDFCC3ED9FEC9E50070DBD00010C8085
:01001700F2F6
:0100180022C5
:04521D007F647E002C
:10522100AB07AA06D3EB9400EA9400400A120003EC
:08523100EB1B70F01A80ED2266
:105239007401A807088002C333D8FCF59DEF2480C8
:09524900F5BC7F017E00020007A4
:10001E0043BC08E5BC30E4FB53BCE7AFBDEF75F065
:0D002E0004A4ADBE7C002DFFEC35F0FE22D9
:105190007823E2FE08E2FFBE3006BF390375C65A27
:1051A000BE3006BF390375C6A5E4F5C5F5C7F5C61B
:0751B00075C4FF75C3FF2267
:10527D008FC4EEF5C375C78175C501125190AFC2CC
:01528D0022FE
:10529F008DC28FC4EEF5C375C78175C502025190DB
:0E52BF008FC4EEF5C375C78175C5030251900B
:104C9100783C7401F2087400F20874DFF2087402BF
:104CA100F208E4F2EF60477F147E0012522118E20D
:104CB100FE08E2FF1252BFE4783BF2783BE2FFC309
:104CC100944450617840E22FFF18E23400FE783CB2
:104CD100E2FB08E2FA08E2F9783BE2F5827583002B
:104CE1001235B5FD12529F783BE204F280CDE47893
:104CF1003BF2783BE2FFC39444502A7840E22FFF15
:104D010018E23400FE12527D783CE2FB08E2FA0818
:104D1100E2F9783BE2F582758300EF123616783BB3
:054D2100E204F280CD68
:014D2600226A
:1052520075D902E4F5F9F5E975FAC075EAC075DAAF
:0952620053D2BF43B780D2AF2242
:03003B00024EB9B9
:104EB900C0E0C083C082C0D075D000C000C001C0AE
:074EC90002C003C006C00790
:104ED000C2D87805E2FB08E2FA08E2F912359CFF35
:104EE000780CE22FFEEF90465F93F5FA7804E270BB
:104EF0000218E2600BEE90475F9324FF92928002CB
:104F0000C292780DE2FE08E2FF7821E22FF218E269
:044F10003EF2B2912A
:104F1400D007D006D003D002D001D000D0D0D082A8
:054F2400D083D0E03253
:104B5700783CEEF208EFF218E2FC08E2FD7818EC78
:104B6700F208EDF2E412337DE4FBFA79807847121C
:104B770031547B007A247974784712325D1233B648
:104B8700780DEEF208EFF2FDAC06E412337D7B0000
:104B97007A2479747847123154E4FBFA798078479C
:104BA70012325DC004C005C006C0079000F1E0FCEA
:104BB7001233827B007A40791C784612325DE4FB1F
:104BC700FA7980783F123063D003D002D001D00049
:104BD70012315490007D123720E47820F208F278E1
:0E4BE7003DE2700218E27003C2DE22D2DE222E
:1051B700EF75F00412357AAFF0C3EF648094805036
:1051C7000474042FFFEF75F040A4780CF2900125CA
:0351D700EFF022D4
:0952FA00900125E004FF0251B708
:1051DA00D3EF6480948340027F03C3EF648094809A
:1051EA005002E4FFEFA2E192A21392A19000ADEF68
:0251FA00F022A1
:10528E009000ADE004FF75F00412357AAFF00251D4
:01529E00DA35
:1051FC00D3EF6480948340027F03C3EF6480948078
:10520C005002E4FFEFA2E19296139294781CEFF215
:01521C00226F
:1052AF00781CE204FF75F00412357AAFF00251FC5E
:104FEE00E4783BF2783CE2FB08E2F908E2FA08E2E8
:104FFE00CBF812001EE4FCFDEB2FFFEA3EFEED396E
:10500E00FDEC38FC783C12372C783BE204F2E2C31C
:10501E0094FA40D0783CE2FC08E2FD08E2FE08E299
:10502E00240CFFE43EFEE43DFDE43CFCE47B19FA77
:05503E00F9F812508F8B
:01504300224A
:1049ED00E4900126F0A3F0A3F0A3F0FF43BC08E58B
:1049FD00BC30E4FB53BCE7AEBEEEFD900127E02DCD
:104A0D00F0900126E03400F0AEBDEEFD900129E0FE
:104A1D002DF0900128E03400F00FEFB4FACE9001A4
:104A2D0026E0FFA3E07808CFF208EFF2A3E0FEA3A3
:104A3D00E0FFE4FCFD7B04FAF9F8123680A804A926
:104A4D0005AA06AB07900126E0FEA3E0FFE4FCFDFE
:104A5D00EB2FFFEA3EFEED39FDEC38FCE47B19FA55
:104A6D00F9F812508F900126EEF0A3EFF0A3E0FEBF
:104A7D00A3E0FFE4FCFD7B04FAF9F8123680780917
:104A8D00E22FFB18E23EFA900126E0FEA3E0FF7C48
:104A9D00007D19123638C3EB9F7809F2EA9E18F2A1
:084AAD00900126E0FEA3E0FFEA
:014AB50022DE
:104E4700783BEFF2BFFF1290007CE004FF75F003A0
:104E570012357AAFF0783BEFF2783BE290007CF0C6
:104E6700700F7F64FE124B57C295D2A0781A740C4C
:104E7700F2783BE2B401107FD17E03124B57C29503
:104E8700C2A0781A7406F2783BE2B402107F857EDE
:104E97001E124B57D295C2A0781A7406F2758D96DA
:104EA700758BABE490008FF09000AEF07820F2089D
:024EB700F222E5
:0B515500E0FEA3E0FFA3E0FCA3E0FDF0
:10516000C3EE648094805007C3E49FFFE49EFEC3B7
:10517000EC648094805007C3E49DFDE49CFCD3ED77
:105180009FEE6480F8EC6480984004AE04AF052282
:03001B00023EF7AB
:103EF700C0E0C0F0C083C082C0D075D000C000C091
:0D3F070001C002C003C004C005C006C00711
:103F14007827E4F208F208F208F290008FE004F047
:103F2400781EE2FF781AE28FF084FFE0C39F400F0F
:103F3400E4F09000AEE004F07827E4F20804F29094
:103F440000AEE0C394044002E4F0900094E0600307
:103F54000243DF7828E2700218E270030243DF12A2
:103F640049ED7827EEF208EFF218E2FE08E2FF7856
:103F74000AEEF208EFF27808E2FD08E27829CDF2C1
:103F840008EDF290007CE0FD3395E0FC74DF2DF544
:103F94008274003CF583E0FD3395E0FCC3EF9D782B
:103FA40028F2EE9C18F29000F2E07003024104182B
:103FB400E4F27826E2FFC36480948440030241045F
:103FC400EF3395E0FEEF25E0FFEE33FE74892FF525
:103FD4008274483EF583E493FC740193FD08E2FA8D
:103FE40008E2FBC39DEC6480F8EA64809850030205
:103FF40040FC748B2FF58274483EF583E493FE7481
:104004000193FFC3EB9FEE6480F8EA648098400359
:104014000240FC7826E2F9FF3395E0FEEF25E0FF4D
:10402400EE33FE747F2FF58274483EF583E493FCEF
:10403400740193FD74812FF58274483EF583C37433
:1040440001939DFBE4939CFAE9FF3395E0FEEF2591
:10405400E0FFEE33FE74892FF58274483EF583E465
:1040640093FE740193FFC37828E29FFD18E29EFC3F
:10407400AF03AE02123638AA06AB07E9FF3395E068
:10408400FEEF25E0FFEE33FE74892FF58274483E7F
:10409400F583E493FC740193FD748B2FF5827448CB
:1040A4003EF583C37401939DFDE4939CFCAF03AE82
:1040B4000212364AAC06AD077826E2FF3395E0FEDD
:1040C400EF25E0FFEE33FE747F2FF58274483EF552
:1040D400837401932DFFE4933CFE9000F2E0FD33E2
:1040E40095E0FC1236387C007D1E12364A7828E2B0
:1040F4002FF218E23EF280087826E204F2023FB67C
:10410400900125E0FFC36480948250097827E2FC83
:1041140008E2FD800E7827E2FC08E2FDC3E49DFD81
:10412400E49CFC9000AEE0FE25E02495F582E434A6
:1041340000F583ECF0A3EDF0C3EF648094825009A2
:104144007829E2FC08E2FD800E7829E2FC08E2FD11
:10415400C3E49DFDE49CFCEE25E024A1F582E43457
:1041640000F583ECF0A3EDF0781CE2FD3395E0FC60
:10417400EEC31325E0249DF582E43400F583ECF0CE
:10418400A3EDF0C37827E26480948050047F02801A
:10419400027F009000AEE0FE2490F582E43400F546
:1041A40083E02FFF75F00412357AAFF074902EF58A
:1041B40082E43400F583EFF09000AEE0FF64016028
:1041C40008EF640360030243679000AEE06401708B
:1041D4002BD2979000991251557827EEF208EFF2FE
:1041E4009000A0E07825F2D3EF9480EE648094A54B
:1041F40040047F0180027F007802EFF29000AEE07D
:104204006403702BC2979000951251557827EEF2F3
:1042140008EFF290009EE07825F2D3EF9480EE64EC
:104224008094A540047F0180027F007801EFF2783A
:1042340025E2FFFE9000ADE0FDFCD37828E29480F7
:1042440018E2648094A5401EEF7017D3ED64809447
:1042540080400F30970C900089E060069000ADE03C
:1042640014FC7E0080727827E2FA08E2FBC39440D3
:10427400EA6480948150087825E22403FE8059C3BF
:10428400EB94C0EA64809483503B7825E22402FED8
:10429400C37828E2948018E264809482503A9000B3
:1042A400ADE0FFC364809481402ED3EF6480948298
:1042B4005026309723900089E0601D7E009000AD69
:1042C400E004FC8013C37828E2944018E2648094EC
:1042D4008B50057825E204FED3EE6480948340027B
:1042E4007E037825E2FFB4031A9000ADE0FDC364B9
:1042F400809483500E30970B900089E060057E0017
:10430400ED04FCEF7028C37828E2944018E264803E
:104314009481501A9000ADE0FFC364809483500EE2
:1043240030970B900089E060057E00EF04FCAF0439
:104334001251DAAF061251FC7825E2B50607900057
:10434400ADE06C600A781E7402F27817E204F29011
:1043540000AEE0B4030D7817E27004781E04F2781E
:1043640017E4F29000AEE00454032490F582E434A0
:1043740000F583E0FF1251B79000AEE06403705B78
:104384007826F27826E2FFC36480948C504DEF3394
:1043940095E0FEEF25E0FFEE33FE74AF2FF5827457
:1043A400003EF583E0FCA3E0FD74C72FF5827400A2
:1043B4003EF583ECF0A3EDF074952FF58274003E86
:1043C400F583E0FCA3E0FD74AF2FF58274003EF5A5
:0B43D40083ECF0A3EDF0E204F280A8FF
:1043DF00D007D006D005D004D003D002D001D00032
:0B43EF00D0D0D082D083D0F0D0E032DC
:07003E00783BEFF208EDF240
:1000450090012A1237380000000090012E1237382F
:1000550000000000900132123738000000009001C6
:10006500361237380000000090013A123738000088
:1000750000009000ADE0FF3395E0FE74E82FF582B7
:1000850074003EF583E0FE3395E090014EF0A3CE7B
:10009500F09000ECE0FF3395E0FE900150F0A3EF07
:1000A500F09000EDE0FD3395E0FC900152F0A3EDFA
:1000B500F0EF2DFFEE3CA3F0A3EFF09000E2E0FFA0
:1000C5003395E0FEA3E0FD3395E0FCEF2DFFEE3C1C
:1000D500900156F0A3EFF090016012373800000050
:1000E5000090016412373800000000E490017CF0B4
:1000F500A3F0A3F0A304F090007CE0FFC364809418
:1001050080500302259ED3EF64809482400302252C
:100115009E7818E2FE08E2FFBE1E1FBF851C9000F8
:10012500ADE0B403159000EFE0FD3395E0FC9001E0
:100135004FE02DF090014EE03CF0BE1E18BF851536
:100145009000F0E0FF3395E0FE900153E02FF09032
:100155000152E03EF09000B7E07004A3E064017046
:1001650062900160E0F8A3E0F9A3E0FAA3E0FBC028
:1001750000C001C002C0039000E2E0FC123382D04F
:1001850003D002D001D000123063900160123720F5
:10019500900164E0F8A3E0F9A3E0FAA3E0FBC00056
:1001A500C001C002C003900150E0FCA3E0FDEC12C9
:1001B500337DD003D002D001D000123063900164AA
:1001C5001237209000B7E07004A3E06402706290DB
:1001D5000160E0F8A3E0F9A3E0FAA3E0FBC000C0EA
:1001E50001C002C0039000E3E0FC123382D003D0CB
:1001F50002D001D0001230639001601237209001C7
:1002050064E0F8A3E0F9A3E0FAA3E0FBC000C001B5
:10021500C002C003900152E0FCA3E0FDEC12337D67
:10022500D003D002D001D0001230639001641237A0
:10023500209000B7E07004A3E0640370669001604D
:10024500E0F8A3E0F9A3E0FAA3E0FBC000C001C019
:1002550002C003900156E0FCA3E0FDEC12337DD013
:1002650003D002D001D00012306390016012372014
:10027500900164E0F8A3E0F9A3E0FAA3E0FBC00075
:10028500C001C002C003900154E0FCA3E0FDEC12E4
:10029500337DD003D002D001D000123063900164C9
:1002A5001237209000B9E07004A3E06401707290E9
:1002B5000160E0FCA3E0FDA3E0FEA3E0FFC004C0F5
:1002C50005C006C0079000E2E0FC123382A804A92D
:1002D50005AA06AB07D007D006D005D00412305FBB
:1002E500900160123720900164E0FCA3E0FDA3E0DB
:1002F500FEA3E0FFC004C005C006C007900150E0A2
:10030500FCA3E0FDEC12337DA804A905AA06AB0702
:10031500D007D006D005D00412305F9001641237A3
:10032500209000B9E07004A3E0640270729001604F
:10033500E0FCA3E0FDA3E0FEA3E0FFC004C005C010
:1003450006C0079000E3E0FC123382A804A905AAC1
:1003550006AB07D007D006D005D00412305F900158
:1003650060123720900164E0FCA3E0FDA3E0FEA34A
:10037500E0FFC004C005C006C007900152E0FCA321
:10038500E0FDEC12337DA804A905AA06AB07D0074A
:10039500D006D005D00412305F900164123720904A
:1003A50000B9E07004A3E064037076900160E0FC9E
:1003B500A3E0FDA3E0FEA3E0FFC004C005C006C0A6
:1003C50007900156E0FCA3E0FDEC12337DA804A9DB
:1003D50005AA06AB07D007D006D005D00412305FBA
:1003E500900160123720900164E0FCA3E0FDA3E0DA
:1003F500FEA3E0FFC004C005C006C007900154E09D
:10040500FCA3E0FDEC12337DA804A905AA06AB0701
:10041500D007D006D005D00412305F9001641237A2
:10042500209000ADE0FF3395E0FE74E42FF5827473
:10043500003EF583E0FC123382A804A905AA06ABA9
:1004450007900160E0FCA3E0FDA3E0FEA3E0FF123E
:10045500305F90007DE0F8A3E0F9A3E0FAA3E0FBAC
:100465001231547B007A2879F4784512325DE4FB29
:10047500FA79FA784412325D9001601237207819C2
:10048500E2B4D14618E2B40341900160E0FCA3E078
:10049500FDA3E0FEA3E0FFC004C005C006C00790B1
:1004A50000EEE0FC123382E4FBFA79FA784412326A
:1004B5005DA804A905AA06AB07D007D006D005D0CC
:1004C5000412305F900160123720900160E0FCA3B8
:1004D500E0FDA3E0FEA3E0FFA804A905AA06FB1220
:1004E5003154E4FBFAF9784012325DA804A905AA53
:1004F50006AB07E4FFFE7D807C3F12305F9001680C
:100505001237209000D3E0FEA3E0FF9000BCE02F5F
:10051500FD9000BBE03EFC12337DE4FBFA79C87820
:100525004112325DC004C005C006C0079000C7E097
:10053500FEA3E0FF9000B0E02FFD9000AFE03EFC91
:1005450012337DD003D002D001D000123063900168
:100555006C1237209000D5E0FEA3E0FF9000BEE0CE
:100565002FFD9000BDE03EFC12337DE4FBFA79C817
:10057500784112325DC004C005C006C0079000C9AD
:10058500E0FEA3E0FF9000B2E02FFD9000B1E03E59
:10059500FC12337DD003D002D001D000123063901D
:1005A50001701237209000D7E0FEA3E0FF9000C055
:1005B500E02FFD9000BFE03EFC12337DE4FBFA79AD
:1005C500C8784112325DC004C005C006C00790005E
:1005D500CBE0FEA3E0FF9000B4E02FFD9000B3E078
:1005E5003EFC12337DD003D002D001D0001230631F
:1005F5009001741237209000D9E0FEA3E0FF90002F
:10060500C2E02FFD9000C1E03EFC12337DE4FBFA11
:1006150079C8784112325DC004C005C006C0079094
:1006250000CDE0FEA3E0FF9000B6E02FFD9000B501
:10063500E03EFC12337DD003D002D001D000123051
:100645006390017812372090014EE0FCA3E0FDECA9
:1006550012337D7B007A40791C784612325DE4FBCB
:10066500FA7980783F123063C004C005C006C00720
:100675009000ADE0FF3395E0FEEF7802C333CE3353
:10068500CED8F9246FF58274483EF583123710D021
:1006950007D006D005D004123154C004C005C006E9
:1006A500C0079000B9E0FEA3E07802C333CE33CE95
:1006B500D8F9245FF58274483EF583123710C000DF
:1006C500C001C002C0039000B7E0FEA3E07802C3FA
:1006D50033CE33CED8F9245FF58274483EF58312C4
:1006E50036F3D003D002D001D00012325DD003D052
:1006F50002D001D00012325DC004C005C006C0079B
:10070500900178E0FCA3E0FDA3E0FEA3E0FF9001EB
:1007150078E0F8A3E0F9A3E0FAA3E0FB123154C0B6
:1007250004C005C006C007900174E0FCA3E0FDA36A
:10073500E0FEA3E0FF900174E0F8A3E0F9A3E0FA7E
:10074500A3E0FB123154D003D002D001D000123007
:1007550063D003D002D001D000123154900164E07F
:10076500F8A3E0F9A3E0FAA3E0FB1231547B007A89
:1007750040791C784612325DC004C005C006C0072A
:1007850090014EE0FCA3E0FDEC12337D7B007A4046
:10079500791C784612325DE4FBFA7980783F123095
:1007A50063C004C005C006C0079000ADE0FF3395E7
:1007B500E0FEEF7802C333CE33CED8F9246FF5824D
:1007C50074483EF583123710D007D006D005D00403
:1007D500123154C004C005C006C0079000B9E0FE40
:1007E500A3E07802C333CE33CED8F9245FF5827403
:1007F500483EF583123710C000C001C002C0039007
:1008050000B7E0FEA3E07802C333CE33CED8F92497
:100815005FF58274483EF5831236F3D003D002D0DB
:1008250001D00012325DD003D002D001D0001232C7
:100835005DC004C005C006C007900178E0FCA3E0D8
:10084500FDA3E0FEA3E0FF900178E0F8A3E0F9A3A3
:10085500E0FAA3E0FB123154C004C005C006C0078E
:10086500900174E0FCA3E0FDA3E0FEA3E0FF90018E
:1008750074E0F8A3E0F9A3E0FAA3E0FB123154D049
:1008850003D002D001D000123063D003D002D001D2
:10089500D000123154D003D002D001D00012306301
:1008A50090012A123720900178E0FCA3E0FDA3E037
:1008B500FEA3E0FF90016CE0F8A3E0F9A3E0FAA342
:1008C500E0FB123154C004C005C006C0079001709A
:1008D500E0FCA3E0FDA3E0FEA3E0FFA3E0F8A3E0B6
:1008E500F9A3E0FAA3E0FB123154D003D002D00102
:1008F500D00012305F123367900160E0F8A3E0F991
:10090500A3E0FAA3E0FB123154C004C005C006C041
:1009150007900178E0FCA3E0FDA3E0FEA3E0FF90D3
:100925000170E0F8A3E0F9A3E0FAA3E0FB1231546B
:10093500C004C005C006C007900174E0FCA3E0FD3B
:10094500A3E0FEA3E0FF90016CE0F8A3E0F9A3E0CB
:10095500FAA3E0FB123154A804A905AA06AB07D0F7
:1009650007D006D005D004123063123367900168B2
:10097500E0F8A3E0F9A3E0FAA3E0FB123154D003B9
:10098500D002D001D00012305F90012E1237209096
:100995000178E0FCA3E0FDA3E0FEA3E0FF90016C7D
:1009A500E0F8A3E0F9A3E0FAA3E0FB123154C00498
:1009B500C005C006C007900170E0FCA3E0FDA3E000
:1009C500FEA3E0FFA3E0F8A3E0F9A3E0FAA3E0FBB0
:1009D500123154D003D002D001D00012305F12334F
:1009E50067900168E0F8A3E0F9A3E0FAA3E0FB1241
:1009F5003154C004C005C006C007900178E0FCA3CF
:100A0500E0FDA3E0FEA3E0FF900170E0F8A3E0F9AC
:100A1500A3E0FAA3E0FB123154C004C005C006C030
:100A250007900174E0FCA3E0FDA3E0FEA3E0FF90C6
:100A3500016CE0F8A3E0F9A3E0FAA3E0FB1231545E
:100A4500D003D002D001D000123063123367900179
:100A550060E0F8A3E0F9A3E0FAA3E0FB123154D07B
:100A650003D002D001D0001230639001321237203A
:100A7500783CE27003020E787FDA7E0F7DC97C40F8
:100A850090007DE0F8A3E0F9A3E0FAA3E0FB1231C2
:100A950054900142123720783CE2FF6405601DEF57
:100AA50064086018EF640A6013EF640D600EEF646C
:100AB5000F6009EF64126004EFB41305E490017F41
:100AC500F0EF6401600AEF64026005EF640370549F
:100AD500E4783CF2C2927BFF7A447953124FBF907F
:100AE500007CE0FF3395E0FE74DF2FF58274003E55
:100AF500F583E0FF3395E0FEC3780BE29FFD18E236
:100B05009EFC12337DC004C005C006C007E47841D1
:100B1500F20812376900000000D007D006D005D0D2
:100B25000402259B783BE27003020C93900132E0AE
:100B3500FCA3E0FDA3E0FEA3E0FFA804A905AA0627
:100B4500FB123154C004C005C006C00790012EE059
:100B5500FCA3E0FDA3E0FEA3E0FFA804A905AA0607
:100B6500FB123154D003D002D001D0001230639073
:100B7500012AE0F8A3E0F9A3E0FAA3E0FB12325D55
:100B850090013E12372090017FE060547BFF7A444C
:100B95007956124FBF90012EE0F8A3E0F9A3E0FAD1
:100BA500A3E0FB90013EE0FCA3E0FDA3E0FEA3E093
:100BB500FF12325DC004C005C006C007784A12376F
:100BC5006900000000784E7402F20814F20812372A
:100BD5006938D1B717D007D006D005D0040238BF81
:100BE500783CE2FF640A6012EF640D600DEF640F5C
:100BF5006008EF64126003020E09900132E0FCA365
:100C0500E0FDA3E0FEA3E0FF12336790013EE0F8AC
:100C1500A3E0F9A3E0FAA3E0FB12325D900142E004
:100C2500F8A3E0F9A3E0FAA3E0FB12325D90014AD4
:100C3500123720900132E0F8A3E0F9A3E0FAA3E02F
:100C4500FB90013EE0FCA3E0FDA3E0FEA3E0FF1264
:100C5500325D900142E0F8A3E0F9A3E0FAA3E0FBDE
:100C650012325D9001461237207FCC7EBC7D0C7C14
:100C7500AC90014AE0F8A3E0F9A3E0FAA3E0FB1287
:100C850032FA784A60025003020DEB020DC9900159
:100C95002AE0FCA3E0FDA3E0FEA3E0FF90013E12E5
:100CA500372090017FE060767BFF7A447956124FBA
:100CB500BF90013EE0F8A3E0F9A3E0FAA3E0FB90C2
:100CC500012EE0FCA3E0FDA3E0FEA3E0FF12325DF0
:100CD500C004C005C006C00790013EE0F8A3E0F9D6
:100CE500A3E0FAA3E0FB900132E0FCA3E0FDA3E062
:100CF500FEA3E0FF12325D784A12372C784E74025B
:100D0500F20814F2081237693727C5ACD007D006A8
:100D1500D005D0041238BF7815E2FF020E06783CE4
:100D2500E2FF640A6012EF640D600DEF640F600866
:100D3500EF64126003020E0990013EE0FCA3E0FDA2
:100D4500A3E0FEA3E0FF123367900132E0F8A3E0D1
:100D5500F9A3E0FAA3E0FB12325D900142E0F8A3AB
:100D6500E0F9A3E0FAA3E0FB12325D90014A1237E5
:100D75002090013EE0F8A3E0F9A3E0FAA3E0FB90A0
:100D85000132E0FCA3E0FDA3E0FEA3E0FF12325D2B
:100D9500900142E0F8A3E0F9A3E0FAA3E0FB1232E8
:100DA5005D9001461237207F777ECC7DAB7CB2907B
:100DB5000146E0F8A3E0F9A3E0FAA3E0FB1232FA5A
:100DC500784A502212376900000000784E7402F20A
:100DD500087404F208123769283424DC90014A1299
:100DE50038B47F46801B12376900000000784E74C6
:100DF50002F208F20812376931ABCC771238B17FAD
:100E0500480252D17F0A1252D17BFF7A4479591296
:100E15004FBF90012EE0FCA3E0FDA3E0FEA3E0FFA1
:100E2500784112372C900132E0FCA3E0FDA3E0FEEF
:100E3500A3E0FF124BF5E4FBFA7934784312315401
:100E45007BDA7A0F7949784012325DC004C005C05B
:100E550006C007E47841F20812376900000000D0A7
:100E650007D006D005D0041250DE7BFF7A44795BAB
:100E75000221B0783BE2641460030210049000ADD7
:100E8500E064036003020F71900132E0FCA3E0FD12
:100E9500A3E0FEA3E0FFA804A905AA06FB123154AE
:100EA500C004C005C006C00790012EE0FCA3E0FD0C
:100EB500A3E0FEA3E0FFA804A905AA06FB1231548E
:100EC500D003D002D001D00012306390012AE0F89F
:100ED500A3E0F9A3E0FAA3E0FB12325D90012A1228
:100EE5003720900081E0F8A3E0F9A3E0FAA3E0FB46
:100EF500C000C001C002C00390012AE0F8A3E0F9D8
:100F0500A3E0FAA3E0FBA3E0FCA3E0FDA3E0FEA3BE
:100F1500E0FF12325DD003D002D001D00012306361
:100F2500900081123720900085E0F8A3E0F9A3E056
:100F3500FAA3E0FBC000C001C002C00390012AE093
:100F4500F8A3E0F9A3E0FAA3E0FB900132E0FCA3EB
:100F5500E0FDA3E0FEA3E0FF12325DD003D002D096
:100F650001D0001230639000851237209000ADE06B
:100F7500600302259E900081E0F8A3E0F9A3E0FA62
:100F8500A3E0FBC000C001C002C00390012AE0F845
:100F9500A3E0F9A3E0FAA3E0FBA3E0FCA3E0FDA333
:100FA500E0FEA3E0FF12325DD003D002D001D000F5
:100FB500123063900081123720900085E0F8A3E09D
:100FC500F9A3E0FAA3E0FBC000C001C002C0039092
:100FD500012AE0F8A3E0F9A3E0FAA3E0FB900132CF
:100FE500E0FCA3E0FDA3E0FEA3E0FF12325DD00329
:100FF500D002D001D00012306390008502372078EE
:101005003BE2B41514900089E004FF75F002123537
:101015007AAFF0900089EFF0227FDA7E0F7DC97CF0
:101025004090007DE0F8A3E0F9A3E0FAA3E0FB120D
:101035003154900142123720900089E0700302215B
:10104500B39000ADE0600302111D90012EE0FCA3FA
:10105500E0FDA3E0FEA3E0FFC004C005C006C00795
:1010650090007CE0FF3395E0FEEF7802C333CE338A
:10107500CED8F924F3F58274003EF583E0FCA3E0B5
:10108500FDA3E0FEA3E0FF90012AE0F8A3E0F9A3A9
:10109500E0FAA3E0FB123154A804A905AA06AB07A0
:1010A500D007D006D005D00412305F90012E12373C
:1010B50020900132E0FCA3E0FDA3E0FEA3E0FFC029
:1010C50004C005C006C00790007CE0FF3395E0FE34
:1010D500EF7802C333CE33CED8F924FFF5827400FE
:1010E5003EF583E0FCA3E0FDA3E0FEA3E0FF900155
:1010F5002AE0F8A3E0F9A3E0FAA3E0FB123154A833
:1011050004A905AA06AB07D007D006D005D004125E
:10111500305F9001321237209000ADE0D3648094A7
:101125008150030212AD900132E0FCA3E0FDA3E083
:10113500FEA3E0FFA804A905AA06FB123154C004CA
:10114500C005C006C00790012EE0FCA3E0FDA3E0AA
:10115500FEA3E0FFA804A905AA06FB123154D0039B
:10116500D002D001D00012306390012AE0F8A3E04C
:10117500F9A3E0FAA3E0FB12325D90012A123720B1
:1011850090012EE0FCA3E0FDA3E0FEA3E0FFC00478
:10119500C005C006C00790007CE0FF3395E0FEEF78
:1011A5007802C333CE33CED8F9240BF58274013ED1
:1011B500F583E0FCA3E0FDA3E0FEA3E0FF90012A98
:1011C500E0F8A3E0F9A3E0FAA3E0FB123154A80488
:1011D500A905AA06AB07D007D006D005D004123062
:1011E5005F90012E123720900132E0FCA3E0FDA3B1
:1011F500E0FEA3E0FFC004C005C006C00790007C68
:10120500E0FF3395E0FEEF7802C333CE33CED8F955
:101215002417F58274013EF583E0FCA3E0FDA3E00D
:10122500FEA3E0FF90012AE0F8A3E0F9A3E0FAA30A
:10123500E0FB123154A804A905AA06AB07D007D0D4
:1012450006D005D00412305F90013212372090018C
:1012550032E0FCA3E0FDA3E0FEA3E0FFA804A9059E
:10126500AA06FB123154C004C005C006C007900190
:101275002EE0FCA3E0FDA3E0FEA3E0FFA804A90582
:10128500AA06FB123154D003D002D001D00012308F
:101295006390012AE0F8A3E0F9A3E0FAA3E0FB12CA
:1012A500325D90012A123720781DE260307822E203
:1012B500FF70189000ADE0D36480948140089001E0
:1012C5007D7401F08005E490017DF0EFB401069096
:1012D500017D7401F07822E2B4021A80139000AD0A
:1012E500E0D364809481400890017D7401F080050D
:1012F500E490017DF07818E2FA08E2FB64644A7034
:101305002490018012373844FA0000900184123786
:10131500383E4CCCCD9001881237384B989680904A
:10132500017E7401F0BA0327BBD1249001801237E6
:1013350038434800009001841237383CA3D70A90FF
:1013450001881237384B98968090017E7402F078A8
:1013550019E2B4852918E2B41E24900180123738A9
:1013650041A000009001841237383B03126F9001B1
:101375008812373849F4240090017E7403F09001F7
:101385007DE070030214E4900132E0FCA3E0FDA3CC
:10139500E0FEA3E0FFA804A905AA06FB123154C08C
:1013A50004C005C006C00790012EE0FCA3E0FDA324
:1013B500E0FEA3E0FFA804A905AA06FB123154D05C
:1013C50003D002D001D00012306390012AE0F8A3C7
:1013D500E0F9A3E0FAA3E0FB12325D90013E12377B
:1013E50020900132E0FCA3E0FDA3E0FEA3E0FF12A4
:1013F500336790013EE0F8A3E0F9A3E0FAA3E0FB30
:1014050012325D900142E0F8A3E0F9A3E0FAA3E00F
:10141500FB12325D90014A123720900132E0F8A3A9
:10142500E0F9A3E0FAA3E0FB90013EE0FCA3E0FDB8
:10143500A3E0FEA3E0FF12325D900142E0F8A3E0D5
:10144500F9A3E0FAA3E0FB12325D900146123720C2
:101455007FCC7EBC7D0C7CAC90014AE0F8A3E0F922
:10146500A3E0FAA3E0FB1232FA90017C6007400585
:101475007401F080037402F0900132E0F8A3E0F902
:10148500A3E0FAA3E0FB90013EE0FCA3E0FDA3E0AE
:10149500FEA3E0FF12325D1252DAC004C005C00699
:1014A500C00790012EE0F8A3E0F9A3E0FAA3E0FB62
:1014B50090013EE0FCA3E0FDA3E0FEA3E0FF1232B5
:1014C5005D1252DAA804A905AA06AB07D007D00613
:1014D500D005D0041232FA40030215F60215F09039
:1014E500012AE0FCA3E0FDA3E0FEA3E0FF90013E9E
:1014F50012372090013EE0FCA3E0FDA3E0FEA3E04F
:10150500FF123367900132E0F8A3E0F9A3E0FAA3F4
:10151500E0FB12325D900142E0F8A3E0F9A3E0FAA6
:10152500A3E0FB12325D90014A12372090013EE0A4
:10153500F8A3E0F9A3E0FAA3E0FB900132E0FCA3F5
:10154500E0FDA3E0FEA3E0FF12325D900142E0F86A
:10155500A3E0F9A3E0FAA3E0FB12325D9001461285
:1015650037207F777ECC7DAB7CB2900146E0F8A337
:10157500E0F9A3E0FAA3E0FB1232FA90017C5005F2
:101585007401F080037402F090013EE0F8A3E0F9E5
:10159500A3E0FAA3E0FB900132E0FCA3E0FDA3E0A9
:1015A500FEA3E0FF12325D1252DAC004C005C00688
:1015B500C00790013EE0F8A3E0F9A3E0FAA3E0FB41
:1015C50090012EE0FCA3E0FDA3E0FEA3E0FF1232B4
:1015D5005D1252DAA804A905AA06AB07D007D00602
:1015E500D005D0041232FA6008400690017C7403DD
:1015F500F090012EE0F8A3E0F9A3E0FAA3E0FBA345
:10160500E0FCA3E0FDA3E0FEA3E0FF12325D125271
:10161500DA90013612372090012EE0FCA3E0FDA3FD
:10162500E0FEA3E0FFEC4D4E4F601D7F007EC07DC8
:10163500797C44900136E0F8A3E0F9A3E0FAA3E051
:10164500FB1232FA600C400A9001361237384479A1
:10165500C000900132E0F8A3E0F9A3E0FAA3E0FBB3
:1016650090012EE0FCA3E0FDA3E0FEA3E0FF123213
:101675005D1252DA90013A123720900132E0FCA354
:10168500E0FDA3E0FEA3E0FFEC4D4E4F601AE4FF42
:10169500FE7D207C4190013AE0F8A3E0F9A3E0FA51
:1016A500A3E0FB1232FA400A90013A123738411F83
:1016B500FBE7781DE2600490017CF0E4FF125273B1
:1016C50090017CE0FF7003021A6EEF640160030273
:1016D50017C290017DE060517BFF7A447960124F1B
:1016E500BF7FCC7EBC7D0C7CAC90014AE0F8A3E0CA
:1016F500F9A3E0FAA3E0FB1232FA600250030217E5
:10170500B990014AE0FCA3E0FDA3E0FEA3E0FF12CF
:1017150052DA900184E0F8A3E0F9A3E0FAA3E0FB34
:101725001232FA60734071804A7BFF7A44797412F1
:101735004FBF7F777ECC7DAB7CB2900146E0F8A3AE
:10174500E0F9A3E0FAA3E0FB1232FA506790014AF0
:10175500E0FCA3E0FDA3E0FEA3E0FF1252DA900156
:1017650084E0F8A3E0F9A3E0FAA3E0FB1232FA6003
:10177500274025784A12376900000000784E740228
:10178500F2087404F208123769283424DC90014AFF
:101795001238B47F46021A6B7BFF7A447963124F85
:1017A500BF90017EE090462C124F9F7BFF7A4479D3
:1017B500670218FB7BFF7A44796A0218FB90017C6B
:1017C500E064026003021901A3E0700302186A7B5A
:1017D500FF7A447977124FBF7FCC7EBC7D0C7CAC01
:1017E50090014AE0F8A3E0F9A3E0FAA3E0FB123286
:1017F500FA600B40097BFF7A44796A0218FB900175
:1018050046E0FCA3E0FDA3E0FEA3E0FF1252DA9060
:101815000180E0F8A3E0F9A3E0FAA3E0FB1232FAB5
:1018250060224020784A12376900000000784E7423
:1018350002F208F20812376931ABCC771238B17F62
:1018450048021A6B7BFF7A44797A124FBF90017E6A
:10185500E0FF3395E0FE904629124FA47BFF7A44C2
:10186500797E0218FB7BFF7A447981124FBF7F771F
:101875007ECC7DAB7CB2900146E0F8A3E0F9A3E015
:10188500FAA3E0FB1232FA50097BFF7A44796A0227
:1018950018FB900146E0FCA3E0FDA3E0FEA3E0FFFA
:1018A5001252DA900180E0F8A3E0F9A3E0FAA3E090
:1018B500FB1232FA60224020784A12376900000094
:1018C50000784E7402F208F20812376931ABCC7712
:1018D5001238B17F48021A6B7BFF7A44797A124F2E
:1018E500BF90017EE0FF3395E0FE904629124FA49C
:1018F5007BFF7A44797E124FBF021A6E90017CE01D
:1019050064036003021A6EA3E070030219C17BFF32
:101915007A447984124FBF90012EE0F8A3E0F9A331
:10192500E0FAA3E0FB90013EE0FCA3E0FDA3E0FEAE
:10193500A3E0FF12325D1252DA900188E0F8A3E0CD
:10194500F9A3E0FAA3E0FB1232FA60544052900189
:101955002EE0F8A3E0F9A3E0FAA3E0FB90013EE056
:10196500FCA3E0FDA3E0FEA3E0FF12325DC004C0CE
:1019750005C006C007784A12376900000000784E96
:101985007402F20814F20812376938D1B717D00774
:10199500D006D005D0041238BF7815E2FF021A6BC5
:1019A5007BFF7A447987124FBF124F987BFF7A44A9
:1019B500798B124FBF7815E2FF021A6B7BFF7A44D1
:1019C500798E124FBF90013EE0F8A3E0F9A3E0FA4B
:1019D500A3E0FB90012EE0FCA3E0FDA3E0FEA3E065
:1019E500FF12325D1252DA900188E0F8A3E0F9A304
:1019F500E0FAA3E0FB1232FA6053405190013EE059
:101A0500F8A3E0F9A3E0FAA3E0FB90012EE0FCA324
:101A1500E0FDA3E0FEA3E0FF12325DC004C005C0F7
:101A250006C007784A12376900000000784E740234
:101A3500F20814F20812376938D1B717D007D00663
:101A4500D005D0041238BF7815E2FF80197BFF7AE4
:101A5500447987124FBF124F987BFF7A44798B12D6
:101A65004FBF7815E2FF1252D1E4FF1252E7900101
:101A750023E07003021DD37F041252D17BFF7A4409
:101A85007959124FBF90017CE0FF7003021CC1EF32
:101A950064017050FFFEFDFC90008BE0F8A3E0F9B7
:101AA500A3E0FAA3E0FB1232FA700590014A8056D2
:101AB5007F0A7ED77D237C3C90008BE0F8A3E0F97C
:101AC500A3E0FAA3E0FB123154C004C005C006C070
:101AD5000790008BE0F8A3E0F9A3E0FAA3E0FB9000
:101AE500014A806290017CE064027073FFFEFDFC98
:101AF50090008BE0F8A3E0F9A3E0FAA3E0FB123233
:101B0500FA7011900146E0FCA3E0FDA3E0FEA3E01E
:101B1500FF021C487F0A7ED77D237C3C90008BE02A
:101B2500F8A3E0F9A3E0FAA3E0FB123154C004C026
:101B350005C006C00790008BE0F8A3E0F9A3E0FA22
:101B4500A3E0FB900146E0FCA3E0FDA3E0FEA3E0DB
:101B5500FF12305FD003D002D001D000021CB89034
:101B6500017CE064036003021CC1A3E07003021C56
:101B750011E4FFFEFDFC90008BE0F8A3E0F9A3E083
:101B8500FAA3E0FB1232FA90012E701FE0F8A3E0F1
:101B9500F9A3E0FAA3E0FB90013EE0FCA3E0FDA37E
:101BA500E0FEA3E0FF12325D021C48E0F8A3E0F975
:101BB500A3E0FAA3E0FB90013EE0FCA3E0FDA3E077
:101BC500FEA3E0FF12325D90008BE0F8A3E0F9A3DD
:101BD500E0FAA3E0FB12305FC004C005C006C007F1
:101BE5007F0A7ED77D237C3C90008BE0F8A3E0F94B
:101BF500A3E0FAA3E0FB123154A804A905AA06AB99
:101C050007D007D006D005D004021CB8E4FFFEFDBE
:101C1500FC90008BE0F8A3E0F9A3E0FAA3E0FB1247
:101C250032FA90013E702EE0F8A3E0F9A3E0FAA3A2
:101C3500E0FB90012EE0FCA3E0FDA3E0FEA3E0FFA6
:101C450012325D90008B1237209001581237380000
:101C55000000008067E0F8A3E0F9A3E0FAA3E0FB49
:101C650090012EE0FCA3E0FDA3E0FEA3E0FF12320D
:101C75005D90008BE0F8A3E0F9A3E0FAA3E0FB1286
:101C8500305FC004C005C006C0077F0A7ED77D232C
:101C95007C3C90008BE0F8A3E0F9A3E0FAA3E0FB1D
:101CA500123154A804A905AA06AB07D007D006D05F
:101CB50005D00412325D9001581237207FCD7ECCBD
:101CC5007DC77CC2900158E0F8A3E0F9A3E0FAA330
:101CD500E0FB1232FA500A900158123738C2C80098
:101CE500007FCD7ECC7DC77C42900158E0F8A3E013
:101CF500F9A3E0FAA3E0FB1232FA600C400A900166
:101D05005812373842C80000900158E0FCA3E0FDA6
:101D1500A3E0FEA3E0FF1252DAE4FBFA79C87842A9
:101D25001232FA702B7FCD7ECC7DC77C4290015854
:101D3500E0F8A3E0F9A3E0FAA3E0FB1232FA7BFF97
:101D4500600840067A44799180717A44799B806B6A
:101D5500E4FFFE7D7A7C44900158E0F8A3E0F9A306
:101D6500E0FAA3E0FB123154E4FBFAF9783F1230B4
:101D7500631233B690015C12372090015CE0FCA33E
:101D8500E0FDA3E0FEA3E0FFEC123378E4FBFA7973
:101D95007A784412325DC004C005C006C007E478F5
:101DA50041F20812376900000000D007D006D005BF
:101DB500D0041250DE7BFF7A4479A5124FBF781DFF
:101DC500E260030220E990017CE0F20220E9900044
:101DD5008B12373800000000781FE2701A7BFF7AFB
:101DE5004479A8124FBFE47841F208123769000020
:101DF5000000900136801E781FE2B401257BFF7A32
:101E05004479AE124FBFE47841F2081237690000F9
:101E1500000090013AE0FCA3E0FDA3E0FEA3E0FF93
:101E25008066781FE26402706E7F0A1252D17F3D90
:101E35001252D190012EE0FCA3E0FDA3E0FEA3E049
:101E4500FF784112372C900132E0FCA3E0FDA3E0BE
:101E5500FEA3E0FF124BF5E4FBFA79347843123127
:101E6500547BDA7A0F7949784012325DC004C00597
:101E7500C006C007E47841F2081237690000000087
:101E8500D007D006D005D0041250DE7BFF7A447906
:101E9500AB124FBF0220E9781FE264036003022002
:101EA500E990017CE064036003021F82A3E06049BE
:101EB5007BFF7A4479B1124FBF900132E0F8A3E07D
:101EC500F9A3E0FAA3E0FB90013EE0FCA3E0FDA34B
:101ED500E0FEA3E0FF12325D1252DA900188E0F8CD
:101EE500A3E0F9A3E0FAA3E0FB1232FA6002500383
:101EF500021F79900132021FCE7BFF7A4479BA1214
:101F05004FBF90013EE0F8A3E0F9A3E0FAA3E0FBA0
:101F1500900132E0FCA3E0FDA3E0FEA3E0FF123256
:101F25005D1252DA900188E0F8A3E0F9A3E0FAA384
:101F3500E0FB1232FA603D403B90013EE0F8A3E041
:101F4500F9A3E0FAA3E0FB900132E0FCA3E0FDA3D6
:101F5500E0FEA3E0FF12325DC004C005C006C00765
:101F650090013EE0F8A3E0F9A3E0FAA3E0FB9001BD
:101F75002E02209E7BFF7A4479B402201390017DC6
:101F8500E070030220257BFF7A447984124FBF90CD
:101F9500012EE0F8A3E0F9A3E0FAA3E0FB90013EEF
:101FA500E0FCA3E0FDA3E0FEA3E0FF12325D1252C8
:101FB500DA900188E0F8A3E0F9A3E0FAA3E0FB12C8
:101FC50032FA6044404290012EE0F8A3E0F9A3E024
:101FD500FAA3E0FB90013EE0FCA3E0FDA3E0FEA335
:101FE500E0FF12325DC004C005C006C00778417429
:101FF50001F20812376938D1B717D007D006D005D6
:10200500D0041250DE0220E27BFF7A447987124F1A
:10201500BF124F987BFF7A4479B8124FBF0220E276
:102025007F0B1252D17F521252D190013EE0F8A39C
:10203500E0F9A3E0FAA3E0FB90012EE0FCA3E0FDAC
:10204500A3E0FEA3E0FF12325D1252DA900188E0B0
:10205500F8A3E0F9A3E0FAA3E0FB1232FA606940C5
:102065006790013EE0F8A3E0F9A3E0FAA3E0FB9056
:10207500012EE0FCA3E0FDA3E0FEA3E0FF12325D2C
:10208500C004C005C006C00790013EE0F8A3E0F912
:10209500A3E0FAA3E0FB900132E0FCA3E0FDA3E09E
:1020A500FEA3E0FF12325D784A12372CE4784EF237
:1020B5000804F20812376938D1B717D007D006D00F
:1020C50005D0041238BF80157BFF7A447987124FFB
:1020D500BF124F987BFF7A4479B8124FBF7815E24B
:1020E500FF1252D17F0B125273781DE2FF60057803
:1020F50022E2703CEF70097BFF7A4479BD124FBF35
:10210500781DE2B401097BFF7A4479C3124FBF7889
:102115001DE2B402097BFF7A4479C9124FBF781DCD
:10212500E26403705A7BFF7A4479CF124FBF804F28
:1021350090017DE07BFF60067A4479D580047A447E
:1021450079D9124FBF7819E26464700218E27005FC
:102155007F411252D17819E2B4D10A18E2B40305CD
:102165007F421252D17819E2B4850A18E2B41E05ED
:102175007F431252D19000ADE02431FF1252D17F3E
:102185000B1252E790007CE0FF3395E0FE9046414C
:1021950075F003EF123782EE75F003A42583F583FE
:1021A500E493FB740193FA740293F9024FBFE4FFC1
:1021B500125273900089E060047F5A80027F4812B2
:1021C50052D1783BE260047F7080027F731252D156
:1021D500E4FF1252E77819E26464700218E27005B0
:1021E5007F411252D17819E2B4D10A18E2B403053D
:1021F5007F421252D17819E2B4850A18E2B41E055D
:102205007F431252D19000ADE02431FF1252D178B4
:1022150001E260249000ADE06403601C7F0212526D
:10222500737BFF7A4479DD124FBF7F021252E77B41
:10223500FF7A4479EC124FBF7802E260229000AD3C
:10224500E0601C7F021252737BFF7A4479F6124FCD
:10225500BF7F021252E77BFF7A4479EC124FBF78B9
:1022650001E2600302259E08E2600302259E783B99
:10227500E270030223E9900132E0FCA3E0FDA3E054
:10228500FEA3E0FFA804A905AA06FB123154C00469
:10229500C005C006C00790012EE0FCA3E0FDA3E049
:1022A500FEA3E0FFA804A905AA06FB123154D0033A
:1022B500D002D001D00012306390012AE0F8A3E0EB
:1022C500F9A3E0FAA3E0FB12325D12526B90012EE6
:1022D500E0F8A3E0F9A3E0FAA3E0FB90013EE0FCFF
:1022E500A3E0FDA3E0FEA3E0FF12325DC004C0053C
:1022F500C006C00778417401F20812376938D1B7B2
:1023050017D007D006D005D0041250DE900132E078
:10231500F8A3E0F9A3E0FAA3E0FB90013EE0FCA3FB
:10232500E0FDA3E0FEA3E0FF12325DC004C005C0DE
:1023350006C00778417401F20812376938D1B7171A
:10234500D007D006D005D0041250DE7F021252E726
:10235500900132E0FCA3E0FDA3E0FEA3E0FF123311
:102365006790013EE0F8A3E0F9A3E0FAA3E0FB12D1
:10237500325D900142E0F8A3E0F9A3E0FAA3E0FBA7
:1023850012325D90014A123720900132E0F8A3E045
:10239500F9A3E0FAA3E0FB90013EE0FCA3E0FDA376
:1023A500E0FEA3E0FF12325D900142E0F8A3E0F900
:1023B500A3E0FAA3E0FB12325D9001461237207FBD
:1023C500CC7EBC7D0C7CAC90014AE0F8A3E0F9A37F
:1023D500E0FAA3E0FB1232FA7841600250030225CD
:1023E5000C0224F790012AE0FCA3E0FDA3E0FEA384
:1023F500E0FF12526B90013EE0F8A3E0F9A3E0FA8A
:10240500A3E0FB90012EE0FCA3E0FDA3E0FEA3E02A
:10241500FF12325DC004C005C006C00790013EE052
:10242500F8A3E0F9A3E0FAA3E0FB900132E0FCA3F6
:10243500E0FDA3E0FEA3E0FF12325D784A12372CDF
:10244500784E7401F208F20812376938D1B717D0FF
:1024550007D006D005D0041238BF7815E2FF125216
:10246500D17F021252E790013EE0FCA3E0FDA3E01C
:10247500FEA3E0FF123367900132E0F8A3E0F9A371
:10248500E0FAA3E0FB12325D900142E0F8A3E0F927
:10249500A3E0FAA3E0FB12325D90014A12372090C7
:1024A500013EE0F8A3E0F9A3E0FAA3E0FB900132D6
:1024B500E0FCA3E0FDA3E0FEA3E0FF12325D900186
:1024C50042E0F8A3E0F9A3E0FAA3E0FB12325D9045
:1024D50001461237207F777ECC7DAB7CB2900146DA
:1024E500E0F8A3E0F9A3E0FAA3E0FB1232FA7841A1
:1024F50050157404F208123769283424DC90014A17
:102505001250D37F4680137402F20812376931AB3B
:10251500CC779001461250D37F481252D190012EAC
:10252500E0F8A3E0F9A3E0FAA3E0FBA3E0FCA3E055
:10253500FDA3E0FEA3E0FF12325D1252DA900132F4
:1025450012372090012EE0FCA3E0FDA3E0FEA3E0FE
:10255500FFEC4D4E4F601B7F007EC07D797C44A310
:10256500E0F8A3E0F9A3E0FAA3E0FB1232FA600C6D
:10257500400A9001321237384479C000E47841F2BC
:102585000812376900000000900132E0FCA3E0FD6D
:09259500A3E0FEA3E0FF1250DEFA
:01259E00221A
:10259F00E4782BF208F208F208F208F208F208F2D7
:1025AF0008F208F208F2125116125303E4FB7D40B1
:1025BF00FF124F2FE4782BF2782BE2FFC3942850B1
:1025CF0014EF90460493FDE4FB7F01124F2F782BFD
:1025DF00E204F280E3E4FF1252737BFF7A45790540
:1025EF00124FBFE4FF1252E77BFF7A45790D124F6E
:1025FF00BF7FF47E0112522178237430F2087439B0
:10260F00F2E4FF124C91E4F588758912F58DF58B84
:10261F00D28EC28CD2ABD2A9D2AFFF1252397596DD
:10262F00FF7592FE75910175A00F1252527F021223
:10263F0051B77F011251DA7F011251FC7F01124E07
:10264F00477831E22401F218E23400F2E5B0F47871
:10265F002DF2E2601AC37833E294FF18E26480949B
:10266F0080500C08E22401F218E23400F28006E4F4
:10267F007832F208F2E4782BF2782DE2FF600AC389
:10268F0013F2782BE204F280F0782BE2782DF2909F
:10269F00008AE0B40721E2C39403501B7833E2644D
:1026AF0004700218E27022782F740AF2783274FFE5
:1026BF00F20874F2F280167833E26404700218E2C2
:1026CF007007782F740AF28004E4782DF2782DE2E7
:1026DF00640870461252F17BFF7A45791D124FBF85
:1026EF00E4FF1252E77BFF7A45792E124FBFE49039
:1026FF00008AF0782DF27834F2900094F0782BF273
:10270F00782BE2FFC39403500E740F2FF87403F26B
:10271F00782BE204F280E912000390008AE0FFC3F5
:10272F009401401DEFD394035017782DE2B40703A3
:10273F0012528E782DE2B406057FFF124E4712001B
:10274F000390008AE07038782DE260031252F1781E
:10275F002DE2FFC39401401AEFD394075014900059
:10276F008AEFF0E4900124F0EFB401069000897431
:10277F0001F0E4782DF27803F20804F212000390CE
:10278F00008AE064016003022A66782DE2FF64018B
:10279F007032900089E0601B781DE204F2E4782229
:1027AF00F2900123F0781DE2D3648094834015E406
:1027BF00F28011781BE204FE75F00212357AAEF04A
:1027CF00781BEEF2EFB4021A900089E06014781FC4
:1027DF00E204F2E4900123F0E2D364809483400298
:1027EF00E4F2782DE26403702D900089E0600578A3
:1027FF001DE2700EE4FD7F1512003EE4900123F000
:10280F0080147822E204F2E4900123F0E2D3648092
:10281F0094824002E4F2782DE264046003022A47B6
:10282F009000ADE0FF64036006EF6003022A4212DE
:10283F0052F19000ADE0B4030590464A80039046F4
:10284F004D124FB412521DE4782BF27F021252E751
:10285F007819E26464700218E270067F96FE1252D5
:10286F002190007CE0FF3395E0FE904641124FA48B
:10287F007F091252E77BFF7A447951124FBF1252F0
:10288F001D9000811237380000000090008512372C
:10289F003800000000E4782CF27F091252E7782C00
:1028AF00E2FFC374339FFF1252D17819E264647050
:1028BF000218E270057F96FE80047F4B7E00125255
:1028CF0021E4FD7F1412003E782CE204F2E2C3945F
:1028DF000440C69000ADE06403600302297AFBFA5E
:1028EF0079807840900081E0FCA3E0FDA3E0FEA397
:1028FF00E0FF12325DC004C005C006C00790007C27
:10290F00E0FF3395E0FEEF7802C333CE33CED8F934
:10291F00240BF58274013EF583D007D006D005D085
:10292F0004123720E4FBFA79807840900085E0FCB0
:10293F00A3E0FDA3E0FEA3E0FF12325DC004C005DB
:10294F00C006C00790007CE0FF3395E0FEEF7802F1
:10295F00C333CE33CED8F92417F58274013EF583F5
:10296F00D007D006D005D0041237209000ADE0601C
:10297F0003022A10FBFA79807840900081E0FCA3D3
:10298F00E0FDA3E0FEA3E0FF12325DC004C005C06E
:10299F0006C00790007CE0FF3395E0FEEF7802C39E
:1029AF0033CE33CED8F924F3F58274003EF583D0BD
:1029BF0007D006D005D004123720E4FBFA798078CF
:1029CF0040900085E0FCA3E0FDA3E0FEA3E0FF1232
:1029DF00325DC004C005C006C00790007CE0FF3325
:1029EF0095E0FEEF7802C333CE33CED8F924FFF54E
:1029FF008274003EF583D007D006D005D00412377D
:102A0F00207FFF124E47782BE204F2E2C39403506B
:102A1F000302285A7F01124C91E4FF125273900067
:102A2F00ADE0B4030590464A800390464D124FB473
:102A3F0012521DE4900123F07816E204F2E2D364FF
:102A4F0080948F400BE4F2781BE2FFE4FD12003E0E
:102A5F007FE07E2E120007782DE2B4051790012338
:102A6F00E004FF75F00212357AAFF0900123EFF01A
:102A7F00E4782FF290008AE064027025FF125273FF
:102A8F007BFF7A45793F124FBF90009E1252CD7B4C
:102A9F00FF7A457943124FBF9000A01252CD12001A
:102AAF000390008AE06403707090009404F0782D16
:102ABF00E2B401031252AF782DE2FFB40302B297D2
:102ACF00EFB404031252FAE4FF1252737BFF7A45FC
:102ADF007948124FBF9001251252CD7BFF7A45796D
:102AEF004D124FBF3097047F3180027F301252D189
:102AFF007BFF7A457952124FBF781CE22430FF12C8
:102B0F0052D1E4FF1252E77831E2541F7008124F8E
:102B1F00EE7D05124D2712000390008AE0FFC3944B
:102B2F00044009EFD39405500312000390008AE08C
:102B3F006406707A782DE2FFB401069000F1E0048C
:102B4F00F0EFB402069000F1E014F0EFB4030D7F44
:102B5F0001124C9190007CE0FF124E479000F1E083
:102B6F00FF780FE26F60441252F19000F1E0780F9E
:102B7F00F2E4FF1252737BFF7A457957124FBFE48D
:102B8F00FF1252E79000F1E0FC123382C004C0053F
:102B9F00C006C007E47841F2081237690000000050
:102BAF00D007D006D005D0041250DE1200039000DB
:092BBF008AE06407600302303F64
:102BC800783804F208F208F2E4900089F07F0512E0
:102BD80052E7900124E0FF70147B01783504F20875
:102BE8007400F20874DFF2E47839F208F2EFB40105
:102BF8001578357401F2087400F20874E0F2783937
:102C08007401F2E408F2EFB4021578357401F208A1
:102C18007400F20874E1F278397402F2E408F2EF11
:102C2800B4031578357401F2087400F20874E8F2F8
:102C380078397401F2E408F2EFB4041578357401B8
:102C4800F2087400F20874E4F278397402F2E408C5
:102C5800F2EFB4051578357401F2087400F20874BF
:102C6800F2F278397401F2E408F2EFB40614783518
:102C78007401F2087400F20874E9F278397401F208
:102C880008F2EFB4071578357401F2087400F208F9
:102C980074E5F278397402F20814F2EFB408157882
:102CA800357401F2087400F20874EAF27839740194
:102CB800F20804F2EFB4091478357401F2087400CC
:102CC800F20874E6F278397402F208F2EFB40A16E0
:102CD80078357401F2087400F20874EBF2783974EC
:102CE80001F2087403F2EFB40B1578357401F20899
:102CF8007400F20874EFF278397402F20804F2EF03
:102D0800B40C1578357401F2087400F20874E7F20F
:102D180078397402F20804F2EFB40D1478357401AE
:102D2800F2087400F20874ECF278397401F208F2CF
:102D3800EFB40E1578357401F2087400F20874E2E5
:102D4800F278397402F20814F2EFB40F147835747B
:102D580001F2087400F20874EDF278397401F2088F
:102D6800F2EFB4101578357401F2087400F20874A3
:102D7800F0F278397402F20814F2EFB411157835CC
:102D88007401F2087400F20874E3F278397402F2FC
:102D98000814F2EFB4121478357401F2087400F2D2
:102DA8000874EEF278397401F208F2EFC394035014
:102DB80008E47803F208F280077803E4F20804F2E2
:102DC800782DE2B401127838E2FF7835E2FB08E2A8
:102DD800FA08E2F9EF1235E2782DE2B402177835F5
:102DE800E2FB08E2FA08E2F912359CFF08E2FEC3AA
:102DF800EF9E123604782DE2B4030D7F01124C9138
:102E080090007CE0FF124E47782DE2B4040E78352E
:102E1800E2FB08E2FA08E2F9E4123604782DE2FF50
:102E2800B40515900124E070057412F08006900135
:102E380024E014F0E47834F2EFB40615900124E0AD
:102E4800B41204E4F08006900124E004F0E478343D
:102E5800F2782DE2B407117834E204FF75F002121B
:102E6800357AAFF07834EFF2782DE2FB6404600332
:102E7800022F457800E204F264056003022F4CF249
:102E88009000E27424F0A37422F0E49000ECF0A324
:102E9800F09000DF744CF0A3F0A37446F0E49000C7
:102EA800E5F09000E4F09000E67404F0A37430F0CC
:102EB800E49000EBF09000EAF09000E9F09000E870
:102EC800F09000F1F09000EEF09000F0F09000EF3C
:102ED800F09000F2F0782BF2782BE2FA25E025E06A
:102EE8002417F582E43401F5831237380000000016
:102EF800EA25E025E0240BF582E43401F583123756
:102F08003800000000782BE2FA25E025E024FFF5E0
:102F180082E43400F58312373800000000EA25E027
:102F280025E024F3F582E43400F5831237380000F5
:102F38000000782BE204F2E2B4039D8007EB600402
:102F4800E47800F27834E2604478107403F208F20E
:102F580090007CE0FE7839E2FF6E6003124E4790E5
:102F680000ADE0FE783AE2FF6E60031251DA90019C
:102F780024E0FFC39403400BEFD394075005E4FD0E
:102F8800FF8004E4FD7F0112003E02303F90007C88
:102F9800E0FE7839E2FF6E6003124E479000ADE024
:102FA800FE783AE2FF6E60031251DA900124E0FFE6
:102FB800C39403400DEFD394075007E004FDE4FFEA
:102FC8008008900124E004FD7F0112003E7835E27C
:102FD800FB08E2FA08E2F912359CFF7810E2B5071F
:102FE8000A08E2FE900124E06E60497810EFF29042
:102FF8000124E008F21252F1E4FF12527390012406
:10300800E075F003A42493F582E43448124FB27BB0
:10301800FF7A4579FB124FBFE4FF1252E77835E299
:10302800FB08E2FA08E2F912359CFF3395E0FE7DD1
:0730380003124D27120003F3
:10303F0090008AE064077003022650782FE2600840
:0D304F00E214F2C2A3022650D2A3022650C2
:10305C00023422E86480F8E933E83360110460F04C
:10306C00ED33EC337009E8FCE9FDEAFEEBFF2204DA
:10307C0060DED3EB9FEA9EE99DE8C2E78CF0C2F7D5
:10308C0095F0400CE8CCF8E9CDF9EACEFAEBCFFBA1
:10309C001233ED85D0F05804700320D5B3E80470DA
:1030AC00075002B2D502342C92D5EC0460F7E4CC74
:1030BC00C0E0C398F8603B94186008400DD0E0FB6A
:1030CC00023404E4FBFAC9FC8028E830E406E4C9C5
:1030DC00FBE4CAFCE830E305E4C9CACBFCE85407BE
:1030EC006010F8C3E913F9EA13FAEB13FBEC13FCC9
:1030FC00D8F130F52FC3E49CFCEF9BFFEE9AFEED6C
:10310C0099FDD0E0FBEF4E4D4C701222DB030234E4
:10311C0029EC2CFCEF33FFEE33FEED33FDED30E705
:10312C00EB023404EF2BFFEE3AFEED39FDD0E0FB61
:10313C0050130BBB000302342CED13FDEE13FEEF0A
:08314C0013FFEC13FC02340434
:10315400EC4D6011E8497017ED33EC3304600DE475
:10316400FCFFFEFD22E933E8330470F80234221236
:1031740033ED58046009E4CC248150062850090238
:10318400342C284003023429C0E0EB4A7044B9804F
:1031940006D0E0FB023418EF4E701CBD8008EBFF34
:1031A400EAFEE9FD80EBE98DF0A4FEE5F002323D94
:1031B400E9CDF9EAFEEBFFEF89F0A4FCE5F0CE8956
:1031C400F0A42EFFE435F0CD89F0A42DFEE435F013
:1031D4008067EF4E7005BD80D780C3EF8BF0A4AC41
:1031E400F0EE8BF0A42CFCE435F0F8EF8AF0A42C7C
:1031F400E5F038FCE433CB8DF0A42CFCE5F03BF88F
:10320400EE8AF0A42CFCE5F038F8E433CF89F0A47E
:103214002CFCE5F038CF3400CE89F0A42FFFE5F084
:103224003EFEE433C98DF0A42EFEE5F039CD8AF0DC
:10323400A42FFFE5F03EFEE43DFD33D0E0FB500754
:103244000BBB000F02342CEC2CFCEF33FFEE33FEEF
:06325400ED33FD0234041D
:10325A0002342CEC5D046005E85904700302342240
:10326A001233ED580460F6EC4860F2EC7004FDFE8F
:10327A00FF22C860DB2481C85009C3986002500647
:10328A000234299850CAF582E9294B4A7005AB8263
:10329A0002341875F0007C1A7880C3EF9BEE9AED21
:1032AA0099400DC3EF9BFFEE9AFEED99FDE842F0BF
:1032BA00DC23ACF0D0E0FFD0E0FED0E0FDAB822012
:1032CA00E7101BEB60BAEC2CFCEF33FFEE33FEED9C
:1032DA0033FD023404E803F830E705C0F075F00066
:1032EA00EF2FFFEE33FEED33FD40B830E7C280AA80
:1032FA0074F8CC6480CCC86480C8F582046043C387
:10330A00EB9FF5F0EA9E42F0E99D42F0E89C45F019
:10331A0060305018E5825FFFE582F42B5582FB503E
:10332A00210ABA001D09B90019088016E5825BFB5B
:10333A00E582F42F5582FF50090EBE00050DBD002F
:10334A00010CC3EB9FF5F0EA9E42F0E99D42F0E8DA
:0D335A009C45F06007CC4820E701B3EC2251
:10336700ED33EC33600A047003BD8004ECB2E7FC74
:013377002233
:1033780075F020800E75F010800575F0087D007ED0
:10338800007F003392D530D5031236CFEC3340108E
:10339800EF33FFEE33FEED33FDEC33FCD5F0ED22D9
:0E33A800E5F0247EA2D513CC92E7CDCEFF2215
:1033B600EDD2E7CD33EC3392D524814006E4FFFE0F
:1033C600FDFC22FCE4CFCECDCC24E0501174FF806E
:1033D600EDC3CC13CCCD13CDCE13CECF13CF04700B
:0733E600F030D5DE0236CF06
:0D52DA00ED33EC3360065004EC6480FC22E0
:104BF500783D12372C7841E2FB08E2F908E2FA0821
:104C0500E2CBF8E8C0E0783DE2FC08E2FD08E2FE10
:104C150008E2FFD0E0F812325D1248EC783D123719
:104C25002C7841E230E757783DE2FC08E2FD08E2E6
:104C3500FE08E2FFECC0E0EDC0E0EEC0E0EFC0E052
:104C4500E4FFFEFDFC783DE2FB08E2F908E2FA0824
:104C5500E2CBF81232FA7BDB600250087A0F794911
:104C6500784080067A0F794978C0D0E0FFD0E0FE21
:104C7500D0E0FDD0E0FC123063783D12372C783D52
:0C4C8500E2FC08E2FD08E2FE08E2FF226B
:1033ED00E9D2E7C933E833F892D5EDD2E7CD33EC26
:0733FD0033FC5002B2D5229F
:10340400EC30E7100FBF000C0EBE00080DBD000429
:103414000BEB6014A2D5EB13FCED92E7FD2274FFD5
:10342400FCFDFEFF22E480F8A2D574FF13FC7D802E
:03343400E480EF42
:1048CC00BE1249253E4CCCCDBEAAAAAB3F800000FF
:1048DC003E7ADBB03EED63383F24BC7D3F490FDBB5
:1048EC00ED33ECC2E7CC339200B4FF13ED547F6090
:1048FC00030234227FDB7E0F7DC97C3F0249E0C27C
:10490C0001C3947F401E7007EDD2E794904015EFE1
:10491C00FBEEFAEDF9ECF87F007E007D807C3F1217
:10492C00325DD201ED33EC33248430E705E4C0E092
:10493C00806C04FAEDD2E754F0C333DAFD5407343B
:10494C00002323C0E0CCC0E0F8EDC0E0F9EEC0E0FD
:10495C00FAEFC0E0FBE4123382EC24FEFC88F07822
:10496C004512372CA8F01231547B007A00798078EC
:10497C003F1230637845E2B2E7CCF208E2CDF208A0
:10498C00E2CEF208E2CFF2D0E0FBD0E0FAD0E0F9D0
:10499C00D0E0F8123063784512370312325D784557
:1049AC0012372C9048CC74031234377845123703E5
:1049BC00123154D0E0600F24D8F582E43448F583EA
:1049CC0012371012306330010B7BDB7A0F79C97808
:1049DC00BF123063ED33EC336006ECA20092E7FCBF
:0149EC0022A8
:10343700C0E0EFFBEEFAEDF9ECF8123154D0E0F50D
:10344700F0EFFBEEFAEDF9ECF81236F3A3A3A3A322
:10345700E8C0E0E9C0E0EAC0E0EBC0E0C0F012314C
:1034670054123710A3A3A3A3123063D0F0D0E0FB0C
:0D347700D0E0FAD0E0F9D0E0F8D5F0D42292
:03000000024DBBF3
:0C4DBB00787FE4F6D8FD758120024E02DE
:10348400E709F608DFFA8046E709F208DFFA803E2A
:1034940088828C83E709F0A3DFFA8032E309F60817
:1034A400DFFA8078E309F208DFFA807088828C837F
:1034B400E309F0A3DFFA806489828A83E0A3F60833
:1034C400DFFA805889828A83E0A3F208DFFA804C0D
:1034D40080D280FA80C680D4806980F280338010E4
:1034E40080A680EA809A80A880DA80E280CA80334D
:1034F40089828A83ECFAE493A3C8C582C8CCC583C5
:10350400CCF0A3C8C582C8CCC583CCDFE9DEE78094
:103514000D89828A83E493A3F608DFF9ECFAA9F013
:10352400EDFB2289828A83ECFAE0A3C8C582C8CC69
:10353400C583CCF0A3C8C582C8CCC583CCDFEADE82
:10354400E880DB89828A83E493A3F208DFF980CCE4
:1035540088F0EF60010E4E60C388F0ED2402B404DD
:103564000050B9F582EB2402B4040050AF23234584
:0635740082239034D473A1
:10357A00C2D530F707B2D563F0FF05F030E70CB2D9
:10358A00D5F4048463F0FF05F080018430D502F499
:02359A00042209
:10359C00BB010689828A83E0225002E722BBFE022D
:0935AC00E32289828A83E4932260
:1035B500BB010CE58229F582E5833AF583E02250CB
:1035C50006E92582F8E622BBFE06E92582F8E22215
:0D35D500E58229F582E5833AF583E493222F
:1035E200BB010989828A83F8E028F022500327F779
:1035F20022BBFE05F8E328F3228A838982F8E4934A
:0236020028227C
:10360400BB010689828A83F0225002F722BBFE01A5
:02361400F3229F
:10361600F8BB010DE58229F582E5833AF583E8F0EA
:10362600225006E92582C8F622BBFE05E92582C896
:02363600F2227E
:10363800EF8DF0A4A8F0CF8CF0A428CE8DF0A42EA6
:02364800FE2260
:10364A00C2D5EC30E709B2D5E4C39DFDE49CFCEE9B
:10365A0030E715B2D5E4C39FFFE49EFE12378EC34E
:10366A00E49DFDE49CFC800312378E30D507C3E449
:06367A009FFFE49EFE220A
:10368000E88FF0A4CC8BF0A42CFCE98EF0A42CFCE9
:103690008AF0EDA42CFCEA8EF0A4CDA8F08BF0A467
:1036A0002DCC3825F0FDE98FF0A42CCD35F0FCEBC6
:1036B0008EF0A4FEA9F0EB8FF0A4CFC5F02ECD398B
:0F36C000FEE43CFCEAA42DCE35F0FDE43CFC22F8
:10508F00C2D5E830E70FB2D5E4C39BFBE49AFAE44C
:10509F0099F9E498F8EC30E717B2D51250C51238E9
:1050AF001FE4C39BFBE49AFAE499F9E498F88003B0
:1050BF0012381F30D50DE4C39FFFE49EFEE49DFD23
:0450CF00E49CFC223F
:0E36CF00C3E49FFFE49EFEE49DFDE49CFC220C
:1036DD00EB9FF5F0EA9E42F0E99D42F0EC6480C864
:0636ED0064809845F02204
:1036F300E493FC740193FD740293FE740393FF221D
:0D370300E2FB08E2F908E2FA08E2CBF82246
:10371000E493F8740193F9740293FA740393FB220F
:0C372000ECF0A3EDF0A3EEF0A3EFF0221C
:0C372C00ECF208EDF208EEF208EFF222D9
:10373800A8828583F0D083D08212374F12374F1278
:10374800374F12374FE473E493A3C583C5F0C5839D
:10375800C8C582C8F0A3C583C5F0C583C8C582C8DB
:01376800223E
:10376900D083D082E493F208740193F2087402932F
:09377900F208740393F274047366
:0C378200A42582F582E5F03583F5832252
:104DC70002259FE493A3F8E493A34003F68001F23E
:104DD70008DFF48029E493A3F85407240CC8C333ED
:104DE700C4540F4420C8834004F456800146F6DFBC
:104DF700E4800B0102040810204080904AB6E47E4C
:104E0700019360BCA3FF543F30E509541FFEE493B0
:104E1700A360010ECF54C025E060A840B8E493A377
:104E2700FAE493A3F8E493A3C8C582C8CAC583CAA2
:104E3700F0A3C8C582C8CAC583CADFE9DEE780BE5A
:014B5600005E
:10378E00BC000BBE0029EF8DF084FFADF022E4CC1F
:10379E00F875F008EF2FFFEE33FEEC33FCEE9DECE8
:1037AE00984005FCEE9DFE0FD5F0E9E4CEFD22ED2E
:1037BE00F8F5F0EE8420D21CFEADF075F008EF2F78
:1037CE00FFED33FD4007985006D5F0F222C398FD69
:0537DE000FD5F0EA2206
:1037E30075F008758200EF2FFFEE33FECD33CDCC9D
:1037F30033CCC58233C5829BED9AEC99E582984020
:103803000CF582EE9BFEED9AFDEC99FC0FD5F0D6FC
:10381300E4CEFBE4CDFAE4CCF9A88222B800C1B926
:103823000059BA002DEC8BF084CFCECDFCE5F0CB64
:10383300F97818EF2FFFEE33FEED33FDEC33FCEB9D
:1038430033FB10D703994004EB99FB0FD8E5E4F958
:10385300FA227818EF2FFFEE33FEED33FDEC33FC45
:10386300C933C910D7059BE99A4007EC9BFCE99A39
:10387300F90FD8E0E4C9FAE4CCFB2275F010EF2F7E
:10388300FFEE33FEED33FDCC33CCC833C810D7077E
:103893009BEC9AE899400AED9BFDEC9AFCE899F8B9
:0E38A3000FD5F0DAE4CDFBE4CCFAE4C8F9224C
:00000001FF
