:0200030011D812
:02000500114B9D
:020007000FF9EF
:020009000C6B7E
:04110000AD30AF2B34
:02110400AC0736
:10110600ED75F010A4AEF0AD047C002DF537EC3E85
:10111600F536AF371211F9AF361211F97F240211E5
:01112600ECDC
:040ED2008F318B329F
:100ED600E531C39480504DEDC394405047E531133E
:100EE6001313541FFF121104E5326003B4010FE51A
:100EF600315407FFC374079F44F8FF0211ECE53233
:100F0600B40321E4FF12118CE5315407FEC37407C4
:100F16009EFE7401A806088002C333D8FC6207E46B
:040F2600FD12116D3A
:010F2A0022A4
:060D48008F348D358B365F
:100D4E00E53465357030FF12118C8F39C3740895F8
:100D5E0037FF74FFA807088002C333D8FCFFAE36F6
:100D6E0074FFA806088002C313D8FC5FF538423919
:100D7E007D01AF398051E4FF12118C8F39AF36747B
:100D8E00FFA807088002C313D8FC4539F5387D014A
:100D9E00FF12116DE53404F539E539C39535500B65
:100DAE007D017FFF12116D053980EEE4FF12118C6B
:100DBE008F39AF3774FFA807088002C313D8FCF42D
:0A0DCE004539F5387D01FF12116D63
:010DD80022F8
:040F2B008F2E8B304A
:100F2F00E52ED39530400CE530622EE52E6230E58C
:100F3F0030622E0530E52E5407F532E5305407F5B3
:100F4F0033E52E131313541FF52EE53013131354DB
:100F5F001FF530AF2E121104E5316003B4010C857B
:0B0F6F003337AB32AD30AF2E120D480F
:010F7A002254
:1010A0008F2D8D2E8B2FE52ED3952F400CE52F62A3
:1010B0002EE52E622FE52F622E052FE52EC3952FEC
:1010C000500DAB30AD2EAF2D120ED2052E80EC227E
:1010D0008F288D298B2A852C31120F2B852C30AB34
:1010E0002BAD29AF2A1210A0852C30AB2BAD29AF28
:1010F000281210A0852C31AB2AAD2BAF28020F2B64
:040E65008F288B2A1D
:100E6900E528D3952A400CE528622AE52A6228E577
:100E790028622AEDD3952B400AED622BE52B6205FA
:100E8900ED622BE528652A603FED652B603AE52880
:100E9900C394805033EDC39440502DE52AD39480F8
:100EA9004003752A80E52BD394404003752B408D70
:100EB9002DE52DD3952B5010852C31AB2AAD2DAFB7
:080EC90028120F2B052D80E912
:010ED10022FE
:0802FC008B368A3789388D39F1
:10030400E53B653A7048FF12118C8F41AF3C74FF96
:10031400A807088002C313D8FCF4FFAE3D74FFA8FD
:1003240006088002C313D8FC4FF540E5415240ABA8
:1003340036AA37A9381211AAFFAE3CA806088002D3
:10034400C313D8FC4540F53F7D01FF0204DEE53CC4
:10035400707BE53D7028853A3EE53EC3953B4003FE
:100364000204E1AB360538E538AA377002053714C4
:10037400F91211AAFF7D0112116D053E80DB853A49
:100384003EE53EC3953B501BAB360538E538AA37EE
:100394007002053714F91211AAFF7D0112116D05BF
:1003A4003E80DEE4FF12118C8F41AF3D74FFA8073D
:1003B400088002C313D8FC5541F53FAB36AA37A9D0
:1003C400381211AA423F7D01AF3F0204DEE4FF125E
:1003D400118C8F41AF3C74FFA807088002C313D867
:1003E400FCF45541F540AB36AA37A9381211AAFFDF
:1003F400AE3CA806088002C313D8FC4540F53FABC9
:10040400360538E538AA377002053714F91211AAEF
:10041400FFC37408953CFEEFA806088002C333D8D6
:10042400FCF5407D01AF3F12116DE53A04F53EE560
:100434003EC3953B5048AB36AA37A9381211AAFFE0
:10044400AE3CA806088002C313D8FC4540F53FAB78
:10045400360538E538AA377002053714F91211AA9F
:10046400FFC37408953CFEEFA806088002C333D886
:10047400FCF5407D01AF3F12116D053E80B1E53DB5
:10048400605BE4FF12118C8F41E539D39401400580
:10049400E53CB53D15AF3D74FFA807088002C313C2
:1004A400D8FC55414540F53F802CAB36AA37A938D6
:1004B4001211AAFFAE3CA806088002C313D8FC455B
:1004C40040F53FAF3D74FFA807088002C313D8FC72
:0D04D4005541F540423F7D01AF3F12116DD3
:0104E10022F8
:080694008B368A3789388D3955
:10069C00E53BB53A26E4FF12118C8F41AB36AA37F5
:1006AC00A9381211AAFFAE3CA806088002C313D8C1
:1006BC00FC6541F53F7D01FF02082CE53C707BE5B4
:1006CC003D7031853A3EE53EC3953B400302082F11
:1006DC00E4FF12118C8F41AB360538E538AA377020
:1006EC0002053714F91211AA6541FF7D0112116D33
:1006FC00053E80D2853A3EE53EC3953B5024E4FF4F
:10070C0012118C8F41AB360538E538AA37700205CB
:10071C003714F91211AA6541FF7D0112116D053EC6
:10072C0080D5E4FF12118C8F41AB36AA37A9381251
:10073C0011AA6541FF7D0102082CE4FF12118C8F78
:10074C0041AB36AA37A9381211AAFFAE3CA806084D
:10075C008002C313D8FCF53FAB360538E538AA3711
:10076C007002053714F91211AAFFC37408953CFEE8
:10077C00EFA806088002C333D8FCF540E541653F7D
:10078C00FF7D0112116DE53A04F53EE53EC3953B44
:10079C005052E4FF12118C8F41AB36AA37A9381294
:1007AC0011AAFFAE3CA806088002C313D8FC454032
:1007BC00F53FAB360538E538AA377002053714F922
:1007CC001211AAFFC37408953CFEEFA8060880021C
:1007DC00C333D8FCF540E541653FFF7D0112116D37
:1007EC00053E80A7E53D603BE4FF12118C8F41E58F
:1007FC0039D394014005E53CB53D0585403F801952
:10080C00AB36AA37A9381211AAFFAE3CA80608804D
:10081C0002C313D8FC4540F53FE541653FFF7D0120
:03082C0012116D39
:01082F0022A6
:0804E2008B368A3789388D3909
:1004EA00E53B653A702EFF12118C8F41AB36AA3765
:1004FA00A9381211AAFFAE3CA806088002C313D875
:10050A00FCFFAE3C74FFA806088002C313D8FCF4B3
:10051A004F020674E53C7076E53D7031853A3EE55A
:10052A003ED3953B4003020693E4FF12118C8F41A0
:10053A00AB360538E538AA377002053714F91211B7
:10054A00AA5541FF7D0112116D053E80D2853A3EC2
:10055A00E53EC3953B5024E4FF12118C8F41AB3624
:10056A000538E538AA377002053714F91211AA5569
:10057A0041FF7D0112116D053E80D5E4FF12118CF9
:10058A008F41AB36AA37A9381211AA020676E4FFC0
:10059A0012118C8F41AB36AA37A9381211AAFFAEB5
:1005AA003CA806088002C313D8FCFFAE3C74FFA81F
:1005BA0006088002C313D8FCF44FF53FAB36053862
:1005CA00E538AA377002053714F91211AAFFC37465
:1005DA0008953CFEEFA806088002C333D8FCF54014
:1005EA00E541553FFF7D0112116DE53A04F53EE5FF
:1005FA003EC3953B5052E4FF12118C8F41AB36AA91
:10060A0037A9381211AAFFAE3CA806088002C31304
:10061A00D8FC4540F53FAB360538E538AA377002B5
:10062A00053714F91211AAFFC37408953CFEEFA806
:10063A0006088002C333D8FCF540E541553FFF7DEB
:10064A000112116D053E80A7E4FF12118C8F41E55E
:10065A003D701DAB36AA37A9381211AAFFAE3CA8C5
:10066A0006088002C313D8FC4540F53F5541801364
:10067A00AF3C74FFA807088002C313D8FC4240E5C8
:09068A00415540FF7D0112116D84
:010693002244
:080830008B368A3789388D39B7
:10083800E53BB53A26E4FF12118C8F41AB36AA3757
:10084800A9381211AAFFAE3CA806088002C313D823
:10085800FC4541F53F7D01FF0209BEE53C707BE5A3
:100868003D7031853A3EE53ED3953B40030209C1D0
:10087800E4FF12118C8F41AB360538E538AA377082
:1008880002053714F91211AA4541FF7D0112116DB5
:10089800053E80D2853A3EE53EC3953B5024E4FFB1
:1008A80012118C8F41AB360538E538AA377002052E
:1008B8003714F91211AA4541FF7D0112116D053E49
:1008C80080D5E4FF12118C8F41AB36AA37A93812B4
:1008D80011AA4541FF7D010209BEE4FF12118C8F68
:1008E80041AB36AA37A9381211AAFFAE3CA80608B0
:1008F8008002C313D8FCF53FAB360538E538AA3774
:100908007002053714F91211AAFFC37408953CFE4A
:10091800EFA806088002C333D8FCF540E541453FFF
:10092800FF7D0112116DE53A04F53EE53EC3953BA6
:100938005052E4FF12118C8F41AB36AA37A93812F6
:1009480011AAFFAE3CA806088002C313D8FC454094
:10095800F53FAB360538E538AA377002053714F984
:100968001211AAFFC37408953CFEEFA8060880027E
:10097800C333D8FCF540E541453FFF7D0112116DB9
:10098800053E80A7E4FF12118C8F41E53D7020AB36
:1009980036AA37A9381211AAFFAE3CA80608800269
:1009A800C313D8FC4540F53F4541FF7D018007E56D
:0909B800414540FF7D0112116D63
:0109C1002213
:0809C2008D2B8B288A29892A5C
:1009CA00AE02AF01EF4E7003020B42E52D70030237
:1009DA000B42E52E7003020B42E52BC394804003C1
:1009EA00020B42E52CC394404003020B42E52B253F
:1009FA002DFFE433FED3EF9480EE940040027F8013
:100A0A008F32E52C252EFFE433FED3EF9440EE948B
:100A1A000040047E007F408F31E52D5407D39400B7
:100A2A0040047F0180027F00E52D131313541F2F0A
:100A3A00F535E52B5407F533E5325407F534E52B44
:100A4A00131313541FF52BE532131313541FF532E6
:100A5A00E52F7036852C30E530C395314003020B03
:100A6A0042121100AB28AA29A92A852B3A85323BC2
:100A7A0085333C85343DAD351202FCE535252AF532
:100A8A002AE43529F529053080CDE52F6402703630
:100A9A00852C30E530C395314003020B4212110018
:100AAA00AB28AA29A92A852B3A85323B85333C856E
:100ABA00343DAD351204E2E535252AF52AE4352917
:100ACA00F529053080CDE52F64017033852C30E59A
:100ADA0030C395315062121100AB28AA29A92A8580
:100AEA002B3A85323B85333C85343DAD351208308F
:100AFA00E535252AF52AE43529F529053080D0E59A
:100B0A002F64037033852C30E530C3953150291298
:100B1A001100AB28AA29A92A852B3A85323B8533AD
:100B2A003C85343DAD35120694E535252AF52AE48F
:080B3A003529F529053080D0B2
:010B42002290
:060B43008F428D438B443C
:100B4900E542B54408854630AB450210A0E543B5FA
:100B5900450B854631AB44FDAF42020F2BC3E5443B
:100B69009542F54DE49400F54CC3E5459543F54FA1
:100B7900E49400F54ED3E54D9400E54C64809480EF
:100B89004005755201800E7552FFC3E4954DF54D30
:100B9900E4954CF54CD3E54F9400E54E6480948080
:100BA9004005755301800E7553FFC3E4954FF54F0A
:100BB900E4954EF54ED3E54D954FE54E6480F8E545
:100BC9004C6480984006AE4CAF4D8004AE4EAF4F9A
:100BD9008E508F51E4F548F549F54AF54BF547E54F
:100BE900512401FFE43550FED3E5479FEE6480F8B8
:100BF900748098506CAB46AD43AF42120ED2E54DAE
:100C09002549F549E54C3548F548E54F254BF54B60
:100C1900E54E354AF54AD3E5499551E5506480F8E2
:100C2900E5486480984012E5499551F549E54895AC
:100C390050F548E5522542F542D3E54B9551E5502B
:100C49006480F8E54A6480984012E54B9551F54B6C
:100C5900E54A9550F54AE5532543F5430547020B07
:010C6900E8A2
:010C6A002267
:10103500752A01E4FF1211F9E4FF1211F97F241258
:1010450011EC7FB01211ECE4F529E4F528E4FF1268
:1010550012060528E528C3941040F20529E529C3A1
:09106500944040E67FB20211EC58
:01123000229B
:10106E00E4FF1211F9E4FF1211F97F241211EC7F43
:10107E00B01211ECE4F528F529E4FF121206052949
:10108E00E52970020528C3E528942040EC7FB202C2
:02109E0011EC53
:100FBB0012123153907F7FC81211C3439080E4FF0C
:100FCB001211F9E4FF1211F97F421211EC7F10128A
:100FDB0011F9E4FF1211F97F431211EC7FA71211E3
:0E0FEB00EC7F801211EC12106E7F980211EC58
:100F7B00407924301912827880900001001FFF8085
:100F8B0010010017FD00104100104100104100132B
:100F9B00F90010410010510010490017FD0010011D
:100FAB00001001001FFF00100100000000000000F6
:03122900010800B9
:1011D8007F0112018B7F0212018B7F0312018BE4C6
:0411E800FF020214EC
:10114B00E4F5215390BFE4FBFA7D0A7F0212029D66
:10115B00439040E4FBFA7D0A7F0212029DBF08E335
:02116B0080E121
:100FF900E4F522E52275F00A84900F7B9390BFFFF8
:10100900F0E52275F00A84E5F0900F7B93907FFF5D
:10101900F00522E522D394634003E4F522E4FBFAC8
:0C1029007D0A7F0212029DBF08C980C72B
:100C6B00E4F523752601752701120FBB121035759C
:100C7B002B37E4F52C7B327D0F7F14120E65E4F5D8
:100C8B00237B03AD23AF23120ED20523E523C3949D
:100C9B004040EE752B3BE4F52C7B7B7D057F0512ED
:100CAB0010D0E4FBFA7D0A7F0212029DE4F523E5E6
:100CBB0023C3946450B6E5242412FFE433FEC3EF40
:100CCB009480EE6480948040057526FF8007E524B0
:100CDB007003752601E5252412FFE433FEC3EF9460
:100CEB0040EE6480948040057527FF8007E52570F2
:100CFB00037527017BFF7A0F798585252C752D12BE
:100D0B00752E12752F03AD241209C2E4FBFA7D0A6E
:100D1B007F0212029D7BFF7A0F798585252C752D1D
:100D2B0012752E12752F03AD241209C2E526252448
:0D0D3B00F524E5272525F5250523020CBA32
:03122D00DFFE22BF
:1011C300AE07AF061EEF600C7FFF12122D7F641275
:0511D300122D80EE2248
:03000B00020013DD
:10000E00C2AF80FE3212001285D01B75D018FAC214
:10001E008CE58A24E7F58AE58C34B1F58CD28CEC2C
:10002E002412F8E6BC030274FFC39581B414004099
:10003E00CF7904780916E608700BC2AFE630E103FB
:10004E004418F6D2AF08D9EDEA8BD0300003D201B6
:10005E0022D51DFAC0E0C0D0C0F0C083C082C0005F
:10006E00C001C002C003C004C005C006C007E51C25
:10007E0023240AF87440C2AF46F6D2AFD200E51C74
:10008E00FF23240AF80F0808EFB51C0610010343DE
:10009E008701BF04047F00780AE630E4E800E51C1F
:1000AE00C39F5020051C7411251CF8E6FDA681087F
:1000BE00E6AE1CBE030274FFCDF8E86D60E008E604
:1000CE00C0E080F6E51CD39F4027E51C2412F8E61D
:1000DE00AE1CBE030274FFFD18E6CDF8E5816D601F
:1000EE0006D0E0F61880F5E51C2411C8F6151C8024
:1000FE00D3751D05E51C23240AF87F04C2AFE61054
:02010E00E61EEB
:1001100030E00310E20C7F0030E10730E3047F0899
:1001200054F4C2E7C6D2AF54804207C20022F6D2CE
:10013000AFD007D006D005D004D003D002D001D074
:1001400000D082D083D0F0D0D0D0E0C2002278118D
:10015000A68174036006FF0876FFDFFB7F04E47866
:1001600009F608F608DFFA780A7630900003740181
:1001700093C0E0E493C0E0751D05438901758AE0F2
:0B018000758CB1D28CD2AFD2A9220343
:03000000020DD915
:0C0DD90078FFE4F6D8FD758153020E206F
:01123100229A
:10112700E4FDFC902FFFE05F6F6009C3ED94E8ECEE
:10113700940340EFC3ED94E8EC940350047F0180DF
:03114700027F0024
:01114A002282
:0D11EC00AE077F03121127902FFFEEF022B7
:0D11F900AE077F03121127900FFFEEF022CA
:0A1213007F03121127900FFFE0FF88
:01121D0022AE
:0D120600AE077F08121127900FFFEEF022B7
:0A121E007F04121127900FFFE0FF7C
:0112280022A3
:02118C00AE07AC
:10118E007FC0EE70054307C5800BBE01054307C146
:0B119E0080034307C31211EC12121370
:0111A9002223
:02116D00AB05D0
:10116F007AC01211F9EB70054302C4800BBB010565
:0D117F004302C080034302C2AF020211EC24
:10018B00EFD3940340037FFF22740A2F2FF8E6204E
:10019B00E5F4C2AFE64430F6D2AFAE1CEEC39F50CF
:1001AB00210E74112EF8E6F908E618BE030274FF4F
:1001BB00FDED69600909E71919F7090980F31616AE
:1001CB0080DAEED39F400405810581EED39F402258
:1001DB0074112EF808E6F9EEB51C02A98118060673
:1001EB00E6FDED6960091919E70909F71980F31E96
:1001FB0080D9EF2411F8E604F8EF2F049000039355
:09020B00F608EF2F93F67F0022A4
:10021400EFD3940340037FFF22EF23240AF8E63050
:10022400E5F4C2AFE6548CF6D2AFE51CB5070A7408
:10023400112FF8E6F58102008A502E74122FF8E689
:10024400BF030274FFFD18E6F974112FF8FBE6FCF6
:10025400E96C6008A805E7F61D1980F4A803A60553
:100264001FE51CB507E37F002274122FF8E6FD1882
:1002740086010F74112FF8A601088604E51CB50742
:1002840002AC81ED6C60080D09A805E6F780F4E581
:090294001CB507DE89817F002200
:10029D008FF0E4FFFEE51C232409F8C2A930F70D09
:1002AD007F08E6600B2DF660325030800730F10686
:1002BD00EDF660277E020830F010C2AFE610E7259C
:1002CD000E30E20CD2AF7F048014C2AFE610E715FA
:1002DD0054EC4EF6D2AFD2A902008A7F0808EF4443
:0F02ED0083F4C2AF56C6D2AFD2A954804FFF22BE
:100DE50002014EE493A3F8E493A34003F68001F2D5
:100DF50008DFF48029E493A3F85407240CC8C3330F
:100E0500C4540F4420C8834004F456800146F6DFDD
:100E1500E4800B0102040810204080901229E47E32
:100E2500019360BCA3FF543F30E509541FFEE493D2
:100E3500A360010ECF54C025E060A840B8E493A399
:100E4500FAE493A3F8E493A3C8C582C8CAC583CAC4
:100E5500F0A3C8C582C8CAC583CADFE9DEE780BE7C
:01122C0000C1
:1011AA00BB010689828A83E0225002E722BBFE0243
:0911BA00E32289828A83E4932276
:00000001FF
