:1009B2004C435220332E3000584A572050757469E8
:1009C200616E2C2032303132000103091B422000BB
:0D09D20000447A0000461C400047C350005E
:1005FF008100024100690041005B00410068014138
:10060F00005A00410059004100AE004C005C000050
:0A061F0000000000000000010001CF
:040B5E0075C13C22FF
:03000B00020003ED
:07000300758CF5758A95323A
:03001B0002024E90
:10024E00C0E0C0F0C083C082C0D075D000C000C076
:0D025E0001C002C003C004C005C006C007F7
:10026B007854E4F208F2758D96758BAB7800E264E6
:10027B00016003020371120A579000AEE0FD25E006
:10028B00245CF582E43400F583EEF0A3EFF0ED602F
:10029B000764026003020350ED7018900060E0FEEB
:1002AB00A3E0FFA3E0FCA3E0FD1200007854EEF204
:1002BB0008EFF29000AEE0B4021890005CE0FEA3F1
:1002CB00E0FFA3E0FCA3E0FD1200007854EEF2087F
:1002DB00EFF2D37855E2948018E2648094A540093C
:1002EB00900059E0FF14F08034C37855E294401825
:1002FB00E26480948150047F038022C37855E2949A
:10030B00C018E26480948350047F028010C3785538
:10031B00E2944018E26480948B50057F0112000038
:10032B009000AEE0FF700D900059E0FD900066E488
:10033B00F0A3EDF0EFB4020D900059E0FF900064D4
:10034B00E4F0A3EFF09000AEE0FFB403047800E418
:10035B00F2EF0454039000AEF07002D2979000AE0F
:10036B00E0B40202C297120B037848E230E2089025
:07037B000068E0FF1208100A
:10038200D007D006D005D004D003D002D001D000CF
:0B039200D0D0D082D083D0F0D0E03279
:100A7800E4F588758911758D96758BABD28E758C5A
:0B0A8800F5758A95C28CD2ABD2A92272
:1004E800120A78D2AFE4FF12001E7592FC759103D0
:1004F8007596FF75A00F120AC77F021200009000C0
:100508005BE0FF1208B6900059E0FF12000090006F
:1005180068E0FF1208101209817BFF7A0979B2128C
:10052800094F120B407BFF7A0979BA12094F120B57
:100538005E7848E230E008900069E0FF1209DF7851
:1005480048E230E10890005AE0FF120A097848E2D0
:1005580054036005E4FF1208B67848E254056005C4
:10056800E4FF120B597847E230E0217849E2240190
:10057800F218E23400F2D308E2946418E26480943A
:10058800804009E4F208F27F031209DF7847E25459
:100598000360217849E22401F218E23400F2D3081A
:1005A800E2946418E2648094804009E4F208F27FDF
:1005B800011208B67847E2540560217849E224011F
:1005C800F218E23400F2D308E2946418E2648094EA
:1005D800804009E4F208F27F01120B597847E27073
:1005E8000218E270057848F208F27800E260030227
:0705F800053604F20205368E
:10062900A04006FFFFFFFFFFFFFFFF0000000000E3
:100639000000005555555555555555AAAAAAAAAAB7
:10064900AAAAAAFF00FF00FF00FF0000FF00FF00A9
:10065900FF00FF55AA55AA55AA55AAFF1111111154
:030669001111FF6D
:100ADD007580F05380BF4380205380EF004380101A
:040AED00E58033224B
:1008EB00120ADD40FB5380BF5380DF438010EFC4FF
:1008FB0054F0FEE580540F4EF580005380EF00431B
:10090B008010EF54F0FFE580540F4FF580005380BB
:02091B00EF22C9
:050B40007FC00208EB7C
:0A000E007F021208EB7F02020000DF
:050B45007F180208EB1F
:050B4A007F1C0208EB16
:050B4F007F0C0208EB21
:050B54007F080208EB20
:100AAE00AE071DEEB40105ED44808007EEB40208DA
:090ABE00ED44C0FFFD1208EB221B
:10091D00120ADD40FB4380405380DF438010EFC45B
:10092D0054F0FEE580540F4EF580005380EF0043E8
:10093D008010EF54F0FFE580540F4FF58000538089
:02094D00EF2297
:10094F007856EBF208EAF208E9F27856E2FB08086B
:10095F00E2F92401F218E2FA3400F21203DBFF127B
:10096F00091D18E2FB08E2FA08E2F91203DBB40AE8
:02097F00D9227B
:0D0873007801EBF208EAF208E9F208EDF274
:1008800075F008A4F2E408F27804E2FF08E2FEC37F
:100890009F50227801E2FB08E2FA08E2F98E8275A5
:1008A00083001203F4FF12091D7F01120000780576
:0508B000E204F280D318
:0108B5002220
:0A0B36007F011208EB7F02020000AD
:100981004380105380BF7F331208EB7F04120000B5
:100991007F321208EB7F041200007F281208EB7FE0
:1009A1000C1208EB7F061208EB120B367FC802000F
:0109B1000045
:09066C008147008146008148002D
:100B0300E5B0F4641FFF7846E26F5F08F218EFF276
:010B130022BF
:040B59007856EFF2E9
:010B5D002275
:1009DF00EFFD7C007869E2FA08E2FB6D7001EA60D6
:1009EF0003188010EB2401FFE43AFE7C007D031214
:0A09FF0004437869ECF208EDF222DF
:1008B600EFFD7C00785BE2FA08E2FB6D7001EA600E
:1008C60003188010EB2401FFE43AFE7C007D04123D
:1008D6000443785BECF208EDF2785B08E2A2E19261
:0508E600A21392A12203
:100A0900EFFD7C00785AE2FA08E2FB6D7001EA60BA
:100A190003188010EB2401FFE43AFE7C007D0212EA
:0A0A29000443785AECF208EDF222C3
:10081000EFFD7C007868E2FA08E2FB6D7001EA60A7
:1008200003188010EB2401FFE43AFE7C007D0312E4
:1008300004437868ECF208EDF27869E2700218E29D
:100840007008C295D2A0FF120A337869E264017081
:100850000218E27009C295C2A07F01120A337869BA
:10086000E26402700218E27009D295C2A07F0212FF
:030870000A332226
:10001E007401A807088002C333D8FCF59D75BC4057
:0D002E0000EF42BC0043BC807F01020000D7
:100A570043BC0800000000E5BC30E4FB53BCE7AF33
:100A6700BDEF75F004A4ADBE7C002DFFEC35F0FEA4
:010A7700225C
:10003E00006403D11E85006904192001FFFFFFFF34
:10004E00FFFFFEFEFDFCFCFBFAF9F8F7F6F5F3F206
:10005E00F0EFEDECEAE8E6E5E3E1DEDCDAD8D6D364
:10006E00D1CECCC9C7C4C2BFBCB9B7B4B1AEABA8B0
:10007E00A5A29F9C999693908C898683807D7A7792
:10008E0074706D6A6764615E5B5855524F4C494798
:10009E0044413E3C393734322F2D2A282624221F44
:1000AE001D1B1A1816141311100E0D0B0A09080732
:1000BE00060504040302020101010101010101010F
:1000CE000101020203040405060708090A0B0D0EBE
:1000DE001011131416181A1B1D1F222426282A2D40
:1000EE002F323437393C3E414447494C4F525558D4
:1000FE005B5E6164676A6D7074777A7D80838689D2
:10010E008C909396999C9FA2A5A8ABAEB1B4B7B9AB
:10011E00BCBFC2C4C7C9CCCED1D3D6D8DADCDEE1DF
:10012E00E3E5E6E8EAECEDEFF0F2F3F5F6F7F8F9D1
:10013E00FAFBFCFCFDFEFEFFFFFFFFFF00000000D0
:10014E0000000000000000000000000000000000A1
:10015E000000000000000000000000000000000091
:10016E000000000000000000000000000000000081
:10017E000000000000000000000000000000000071
:10018E000000000000000000000000000000000061
:10019E000000000000000000000000000000000051
:1001AE000000000000000000000000000000000041
:1001BE00000000000000000000000000010101012D
:1001CE000101010101010101010101010101010111
:1001DE000101010101010101010101010101010101
:1001EE0001010101010101010101010101010101F1
:1001FE0001010101010101010101010101010101E1
:10020E0001010101010101010101010101010101D0
:10021E0001010101010101010101010101010101C0
:10022E0001010101010101010101010101010101B0
:10023E00010101010101010101010101004080C024
:10067500824900004400B1447426664100B500413A
:0E06850000B0004100AF00824B0001814D0625
:100AC70075D902E4F5E9F5F975EAC075FAC075DA82
:060AD70053D2BFD2DE2263
:03003B000207AB0E
:1007AB00C0E0C083C082C0D075D000C000C006C0FE
:0107BB000736
:1007BC00C2D87F0078AFE290024A932FFEEF9000F0
:1007CC004A93F5FAAF06EF90014A9324FF92927880
:1007DC0069E225E0FF18E233FE74442FF5827400C1
:1007EC003EF583E493FE740193FF784AE22FF218EE
:0507FC00E23EF2B291A3
:0F080100D007D006D000D0D0D082D083D0E03244
:100A3300EF25E0243EF582E43400F583E493FC746F
:100A43000193FDE41203A29000B1120487E47849F4
:040A5300F208F22291
:100A9300C2AF75C65A75C6A5000000D2AFE4F5C74C
:0B0AA300F5C5F5C675C3FF75C4FF2242
:100B140075C78075C5018FC4EEF5C3120A93AFC2C1
:010B240022AE
:100AF10075C78075C5028FC4EEF5C3AF058FC202FD
:020B01000A9355
:100B250075C78075C503E4F5C4EF25E0F5C3020A72
:010B3500932C
:10072000784F74FEF2087400F208746AF2087402DA
:10073000F208E4F2EF603C7F02120B25E4784EF2FF
:10074000784EE2FFC3940250617853E22FFF18E223
:100750003400FE784FE2FB08E2FA08E2F9784EE254
:10076000F5827583001203F4FD120AF1784EE2045B
:10077000F280CDE4784EF2784EE2FFC39402502A24
:100780007853E22FFF18E23400FE120B14784FE288
:10079000FB08E2FA08E2F9784EE2F582758300EF91
:0A07A000120421784EE204F280CD2D
:0107AA00222C
:10039D0075F020800E75F010800575F0087D007EDB
:1003AD00007F003392D530D503120479EC33401021
:1003BD00EF33FFEE33FEED33FDEC33FCD5F0ED22E4
:0E03CD00E5F0247EA2D513CC92E7CDCEFF2220
:0300000002069461
:0C069400787FE4F6D8FD7581070206DBD4
:1003DB00BB010689828A83E0225002E722BBFE0220
:0903EB00E32289828A83E4932253
:1003F400BB010CE58229F582E5833AF583E02250BE
:1004040006E92582F8E622BBFE06E92582F8E22207
:0D041400E58229F582E5833AF583E4932221
:10042100F8BB010DE58229F582E5833AF583E8F011
:10043100225006E92582C8F622BBFE05E92582C8BD
:02044100F222A5
:10044300C2D5EC30E709B2D5E4C39DFDE49CFCEED4
:1004530030E715B2D5E4C39FFFE49EFE120493C3B5
:10046300E49DFDE49CFC800312049330D507C3E4B0
:060473009FFFE49EFE2243
:0E047900C3E49FFFE49EFEE49DFDE49CFC2294
:0C048700ECF0A3EDF0A3EEF0A3EFF022E8
:1006A0000204E8E493A3F8E493A34003F68001F284
:1006B00008DFF48029E493A3F85407240CC8C3335B
:1006C000C4540F4420C8834004F456800146F6DF2A
:1006D000E4800B01020408102040809005FFE47EB6
:1006E000019360BCA3FF543F30E509541FFEE4931F
:1006F000A360010ECF54C025E060A840B8E493A3E6
:10070000FAE493A3F8E493A3C8C582C8CAC583CA10
:10071000F0A3C8C582C8CAC583CADFE9DEE780BEC8
:010693000066
:10049300BC000BBE0029EF8DF084FFADF022E4CC4D
:1004A300F875F008EF2FFFEE33FEEC33FCEE9DEC16
:1004B300984005FCEE9DFE0FD5F0E9E4CEFD22ED5C
:1004C300F8F5F0EE8420D21CFEADF075F008EF2FA6
:1004D300FFED33FD4007985006D5F0F222C398FD97
:0504E3000FD5F0EA2234
:00000001FF
